:10000000F8FF0020110400009B3100009B3100002C
:100010009B3100009B3100009B3100009B310000B0
:100020009B3100009B3100009B3100009B310000A0
:100030009B3100009B3100009B3100009B31000090
:100040009B3100009B3100009B3100009B31000080
:10040000FFFFFFFFFFFFFFFFFFFFFFFFFEFFFFFFFD
:1004100062B605F01DF9FEE7012110F01F029140C0
:10042000DFF8042E40B2430942F82310704780B52C
:10043000002000F09FFF012000F09CFF022000F050
:1004400099FF032000F096FF042000F093FF0520A1
:1004500000F090FF062000F08DFF072000F08AFFDB
:10046000082000F087FFDFF8C80A00F0E9FFDFF896
:10047000C41A672001F0FBF8DFF8BC1A102001F065
:10048000F6F8DFF8A80D0168002001F007F90FF277
:100490005151542001F0EBF801F0BBFA43F2DE5366
:1004A00064220321032001F00FFD43F22053642254
:1004B0000721032001F008FD002001F077FE012054
:1004C00001F074FE022001F071FE032001F06EFEC7
:1004D0004420FFF7A1FF01BD70B5FFF7A8FF05207D
:1004E00000F071FF00280FD1DFF8D00B4069DFF872
:1004F000D81B0860DFF8C80B4069DFF8341D0860BE
:100500000220DFF8C01B0870062000F05CFF002806
:1005100018D1DFF8940B0078002813D1DFF89C0B7A
:100520000069DFF8A41B0860DFF8940B0069DFF8AE
:10053000001D08600320DFF88C1B08700120DFF825
:10054000681B0870072000F03EFF002820D1DFF86C
:10055000600B007800281BD10820DFF86C1B0860B6
:100560007FF00700DFF8C81C08600420DFF8541B88
:1005700008704620DFF8E81C0870DFF8E80C00225D
:10058000DFF8283BC0E900230120DFF8241B0870B6
:1005900000F0BCFF4FF41672DFF89419DFF8140B6B
:1005A00001F05AFEDFF88C0C026812B200215020D4
:1005B00001F0B5FADFF8800C026812B20121502078
:1005C00001F0ADFA01F030FB00F084FDDFF8E80A3D
:1005D000007819280FDBDFF85C0C0068002806D0D3
:1005E000DFF8540C0068002801D000F02EFA00203B
:1005F000DFF8C41A0870DFF8700C026812B202212A
:10060000502001F08CFADFF8640C026812B203216A
:10061000502001F084FADFF8580C026812B204216D
:10062000502001F07CFADFF84C0C026812B2052170
:10063000502001F074FADFF88C0A027812B2062119
:10064000502001F06CFADFF8300C007800283DD122
:10065000002000F0B8FE002806D1DFF8140C006876
:100660000A30DFF80C1C0860012000F0ACFE002806
:1006700006D1DFF8FC0B00680A38DFF8F41B0860CD
:10068000DFF8EC0B02680321032001F0F2FC0220EA
:1006900000F099FE002806D1DFF8D80B00680A3078
:1006A000DFF8D01B0860032000F08DFE002806D183
:1006B000DFF8C00B00680A38DFF8B81B0860DFF805
:1006C000B40B02680721032001F0D3FC042000F0E2
:1006D00087FE00280FD1DFF8A40B007800280AD18C
:1006E0000120DFF8941B08700120DFF8901B0870D0
:1006F000002000F011FEDFF8880B0078002800F0E1
:10070000A8800020DFF8781B087000240120040076
:10071000E4B2042C3ADADFF86C0BE4B250F82400AF
:10072000DFF8601B0968401ADFF8581BE4B251F883
:100730002410DFF8502B1268891ADFF84C2BE4B232
:1007400052F82420DFF8403B1B68D21ADFF8383B10
:10075000E4B253F82430DFF8305B2D685B1B5A435A
:1007600001FB00200A280FDB0020DFF8201B0870A7
:10077000DFF81C0B00220023C0E90023DFF8140B74
:1007800000220023C0E90023641CC1E7002004000C
:10079000E4B2042C5DDADFF8C80A0078DFF8E41A66
:1007A000E4B251F82410DFF820291268891ADFF822
:1007B000D42AE4B252F82420DFF80C391B68D21A8C
:1007C000DFF8C43AE4B253F82430DFF8645A2D68F5
:1007D0005B1BDFF8B45AE4B255F82450DFF8506AD6
:1007E0003668AD1B6B4302FB0131884228DB0020D9
:1007F000DFF8981A0870DFF8980A00220023C0E991
:100800000023DFF8900A00220023C0E90023022021
:1008100000F082FDDFF8800A0068401CDFF8781ADB
:100820000860DFF8780A006841F2883188420EDA01
:10083000DFF8680A0068401CDFF8601A086006E00C
:100840000020DFF8541A0860032000F065FD641CE6
:100850009EE7DFF84C0A0068B0F57A7F4FDB002096
:10086000DFF83C1A0860DFF8CC090068002846D0A1
:10087000DFF8C4090068002841D0DFF8280A0068C2
:10088000DFF8E4190968401ADFF8181A0968DFF878
:10089000D8291268891ADFF8102A1268DFF8CC39D3
:1008A0001B68D21ADFF8003A1B68DFF8C0492468D9
:1008B0001B1B5A4301FB00200B2804DAC820DFF879
:1008C000CC1908700FE00020DFF8C0190870DFF8BD
:1008D000C00900220023C0E90023DFF8B809002284
:1008E0000023C0E90023DFF880090068DFF8B419AD
:1008F0000860DFF878090068DFF8AC190860DFF8F5
:100900009809006841F64D51884246DBDFF88809B6
:100910000068B0F5FA5F40DADFF890090078002847
:100920003BD1DFF8A0070078032836D10120DFF89B
:100930007C19087042F22830DFF85C190860DFF893
:100940007C074069DFF880170860DFF874074069AA
:10095000DFF8DC18086042F6EC420721032001F0C2
:1009600088FB4FF4FA7001F0DCFC43F6A402072187
:10097000032001F07EFBC82001F0D3FC42F60412F4
:100980000721032001F075FBC82001F0CAFC43F6E3
:1009900054520721032001F06CFBDFF800090068C6
:1009A000B0F57A7FFFF69BADDFF8180700780428D2
:1009B0007FF495AD7FF01600DFF80C1708607FF02C
:1009C0001700DFF86C180860DFF898080022DFF8DD
:1009D000E038C0E900230A20DFF8841808707EE5BB
:1009E000DFF8D4060078401CDFF8CC160870DFF87A
:1009F000B0080068401CDFF8A8180860DFF8980805
:100A0000006804280CDBDFF890080068B0F5FA5F96
:100A100006DADFF884080068401CDFF87C180860FC
:100A2000DFF868080078002806D0DFF86008007852
:100A3000401FDFF858180870DFF87808006850F099
:100A40000100DFF870180860704780B5DFF82808EB
:100A5000007800283DD0DFF86008D0E90023DFF8F7
:100A60005C08DFF85C1801F073FCDFF84C28C2E981
:100A70000001DFF85008D0E90023DFF84008DFF874
:100A8000401801F065FCDFF83C28C2E90001DFF8FE
:100A90002808416800680022DFF82C3801F0CCFCFF
:100AA00006D8DFF814080022DFF81C38C0E900235C
:100AB000DFF81008416800680022DFF80C3801F008
:100AC000BBFC06D8DFF8FC070022DFF8FC37C0E9E2
:100AD0000023DFF860070068801CDFF85817086003
:100AE000DFF8500700682938DFF8E0170860DFF802
:100AF00048070068D0F11F00DFF8D4170860DFF85E
:100B0000CC070068DFF860170860DFF8C4070068EA
:100B1000DFF858170860DFF86C078068DFF86417A3
:100B2000C860DFF860074068DFF858178860DFF8B2
:100B300054070068DFF84C174860DFF82C0700689E
:100B4000DFF840170860DFF840078068DFF83817E3
:100B5000C860DFF834074068DFF82C178860DFF8DA
:100B600028070068DFF820174860DFF800070068F2
:100B7000DFF8141708600120DFF804170870DFF8A9
:100B8000F806007801280DD100F00EF802000321CC
:100B9000032001F06EFA00F0D5F9020007210320CE
:100BA00001F067FA01BD0000F8B52DED028B0024BD
:100BB00000259FEDE28BDFF814070068DFF80815C9
:100BC0000968401A01F050FC41EC180B51EC180B6D
:100BD00001F062FCDFF8FC160860DFF8FC06DFF8C5
:100BE000F81691ED000B80ED020BDFF8EC0680EDBE
:100BF000008BDFF8DC060068DFF834160968401A5D
:100C0000DFF8CC160968DFF828261268891A4843ED
:100C100001F02AFC06000F0053EC182B51EC180BC6
:100C200001F066FC32003B0001F092FB0122DFF88C
:100C3000AC3601F02FFD80F0A0800020DFF89C167C
:100C4000DFF820265368126801F03CFD02000B001B
:100C5000DFF864064168006801F0EEFB0CD8002064
:100C6000DFF87816DFF8FC255368126801F02AFDDA
:100C7000DFF84426C2E900010020DFF86016DFF843
:100C8000E4255368126801F01DFD02000B00DFF837
:100C900034064168006801F0CFFB0CD80020DFF873
:100CA0003C16DFF8C0255368126801F00BFDDFF831
:100CB0001426C2E90001DFF818060068DFF8701595
:100CC0000968401ADFF808160968DFF86425126819
:100CD000891A484301F0C8FB06000F0053EC182B9B
:100CE00051EC180B01F004FC32003B0001F030FB2A
:100CF0000022DFF8BC3501F09FFB7CD80020DFF834
:100D0000E015DFF860255368126801F0DBFC020093
:100D10000B00DFF8A4054168006801F08DFB0CD8DA
:100D20000020DFF8BC15DFF83C255368126801F09D
:100D3000C9FCDFF88425C2E900010020DFF8A01516
:100D4000DFF820255368126801F0BCFC02000B009C
:100D5000DFF870054168006801F06EFB4BD8002099
:100D6000DFF87C15DFF8FC245368126801F0AAFC58
:100D7000DFF85025C2E900013DE00020DFF848150A
:100D8000DFF8E0245368126801F09CFC02000B00BD
:100D9000DFF824054168006801F04EFB0CD8002004
:100DA000DFF82415DFF8BC245368126801F08AFCD0
:100DB000DFF80425C2E900010020DFF80C15DFF898
:100DC000A4245368126801F07DFC02000B00DFF8D8
:100DD000F4044168006801F02FFB0CD80020DFF814
:100DE000E814DFF880245368126801F06BFCDFF828
:100DF000D424C2E90001DFF894040078002848D028
:100E0000012000F089FADFF8C8040068DFF8201438
:100E10000968401ADFF8B8140968DFF8142412686A
:100E2000891A484301F020FB06000F0053EC182BF1
:100E300051EC180B01F05CFB32003B0001F088FA2A
:100E40000122DFF8A03401F025FC11D253EC182B5D
:100E50000020DFF8941401F04BFBDFF834245368D2
:100E6000126801F075FADFF82824C2E9000110E0E9
:100E700053EC182B0020DFF8741401F039FBDFF875
:100E800010245368126801F063FADFF80424C2E901
:100E90000001DFF82404D0E90023DFF83C044168B6
:100EA000006801F025FB06000F00DFF82C04416804
:100EB0000068DFF82424D368926801F003FC002264
:100EC000002301F015FB32003B0001F041FA06005F
:100ED0000F00DFF81C04D0E90023DFF8B4034168F9
:100EE000006801F005FB32003B0001F031FA01F02F
:100EF000D3FA0500DFF87803006828180400DFF84B
:100F0000F403046044F29530844202DB44F29430EE
:100F1000040042F21070844202DA42F210700400BF
:100F2000DFF8B00384602000BDEC028BF2BD00004E
:100F3000380FFF1F3D1200001113000000000000D9
:100F400000000000F8B52DED028B002400259FED78
:100F50005F8BDFF87C030068B5490968401A01F02F
:100F600083FA41EC180B51EC180B01F095FADFF8FD
:100F700064134860DFF88003DFF87C1391ED000B09
:100F800080ED020BDFF8700380ED008BBF48007826
:100F900000283DD0012000F0BFF9CC4800684A4944
:100FA0000968401AC9490968474A1268891A4843BA
:100FB00001F05AFA06000F0053EC182B51EC180BF5
:100FC00001F096FA32003B0001F0C2F90122C54B54
:100FD00001F060FB0ED253EC182B0020C74901F042
:100FE00087FAAC4A5368126801F0B2F9A94AC2E91B
:100FF00000010DE053EC182B0020BC4901F078FAF9
:10100000A44A5368126801F0A3F9A24AC2E9000198
:10101000AC484168006801F03FFAAE494861A94810
:10102000D0E90023B4484168006801F061FA060085
:101030000F00B14841680068AF4AD368926801F078
:1010400041FB0022002301F053FA32003B0001F083
:101050007FF906000F00AA48D0E900238D484168B7
:10106000006801F045FA32003B0001F071F901F02F
:1010700013FA05007F480068401B0400A148046083
:1010800043F6B130844202DB43F6B030040042F64E
:101090005000844202DA42F6500004008D48C460D9
:1010A0002000BDEC028BF2BD3325FF1F00805140B4
:1010B0003425FF1F9011FF1F2C25FF1F2804FF1F41
:1010C0005404FF1F3225FF1F2004FF1F00000000F3
:1010D0000000000070B40020002100220023002442
:1010E0000025544E35600025534E35603B252800C1
:1010F000C0B2002800F0958005252900C9B24B290F
:1011000026DA814DC0B2502606FB0055C9B24D5DAE
:10111000FF2D1BD17C4DC0B2502606FB0055C9B235
:101120004D196D78FF2D11D1774DC0B2502606FBB9
:101130000055C9B24D19AD78002D07D1C9B28D1C2B
:101140003C4E3560C0B23C4D286001E0491CD5E7FB
:10115000384D2D68002D32D0374D2D68002D2ED002
:10116000344D2D682A00D2B2324D2D680A35AA427C
:1011700025DAD2B24C2A08DB00252E4E3560002538
:101180002D4E356000252B0019E05F4DC0B2502672
:1011900006FB0055D2B2555D002D04D15B1CDBB2BD
:1011A000042B0ADB08E00025224E35600025224E84
:1011B000356000252B0002E001E0521CD3E7DBB2D2
:1011C000042B21DBD2B21B4D2D68AD1DAA4223DAC0
:1011D000D2B24C2A08DB0025164E35600025164E8B
:1011E000356000252B0017E0474DC0B2502606FBA6
:1011F0000055D2B255196D78FF2D00D1641CE4B2B0
:10120000042C09DA521CDDE700250A4E3560002562
:10121000094E356000252B00E4B2042C01DA401E93
:1012200066E770BC7047000000E100E0D424FF1FB7
:101230002404FF1F5024FF1F5424FF1F38B500242F
:10124000324805685FF0FF30304908601D20040017
:1012500035FA04F0C00701D500F028F931BD0000CF
:101260008804FF1F300FFF1F8024FF1F8424FF1FEF
:101270008004FF1F8404FF1F2D25FF1F2E25FF1F45
:101280003025FF1F9424FF1FA424FF1F2F25FF1FBD
:10129000200FFF1F280FFF1FB424FF1FB824FF1FBC
:1012A0008824FF1F8C24FF1F9024FF1F3125FF1F60
:1012B000000059400C710340F00EFF1FB81E85EB73
:1012C00051B8CE3FF80EFF1F008056405824FF1F34
:1012D0005C24FF1F6024FF1F100FFF1F00C062402F
:1012E00000005E400000544000004E4000002440DA
:1012F0001004FF1F7824FF1F000FFF1F000049404C
:101300001804FF1F7C24FF1F9011FF1FA0900440B2
:1013100080B500F0F1F801BD10B50400E4B2002C76
:1013200005D0022C0BD006D3032C0DD010E00020EA
:1013300000F077FF0CE0032000F073FF08E00021CD
:10134000022000F050FF03E00121022000F04BFFDB
:1013500010BD50F8041B61B150F8042BD30744BFF3
:10136000A9F101039A18002342F8043B091FFAD19E
:10137000EFE7704710B5040064B2092C0DDA0022C3
:10138000002164B22148205C01F05CFA032164B2C0
:101390001E48205C01F046FB14E0092004002000F8
:1013A000441E40B200280DD00022002164B217482C
:1013B000205C01F047FA032164B21448205C01F07C
:1013C00031FBECE710BD10B5040064B20F48205C9F
:1013D00001F0E4FA002801D1002000E0012010BD56
:1013E00010B50400200040B2FFF7EDFF00280AD13D
:1013F0000A2000F096FF200040B2FFF7E4FF00282B
:1014000001D1002000E0012010BD0000400CFF1FB2
:1014100010B440B241097A4A012310F01F04A340DE
:1014200042F8213010BC704710B440B24109754AEF
:10143000012310F01F04A34042F8213010BC704774
:1014400010B504007048046000F081F80028FBD05B
:1014500000F002F8002010BDE0B5012002904FF42A
:1014600016700190002000901B23674802686749AE
:10147000002001F03BFB66480068400840006449DA
:1014800008605720FFF7D0FF6248006850F0010065
:10149000604908600020FFF7BBFF5F491B2001F097
:1014A0009FFA5E491D2001F09BFA07BD80B55C489C
:1014B00090F90000042818D15948032101705720E1
:1014C000FFF7B2FF57485FF00061016050480068C5
:1014D00050F001004E49086052485FF00061016021
:1014E000514849490968016005E05720FFF79CFF12
:1014F0004B480221017001BD494801210170454856
:10150000006850F0010043490860704780B54448C6
:101510000421017043485FF0FF3101605720FFF75D
:1015200077FF3F4890F9000001280FD03C4890F920
:1015300000000228F5D13A480421017039485FF0D3
:10154000FF3101605720FFF763FFEAE701BD10B5E7
:1015500082B0002400208DF8000001F0E8FB80211B
:10156000122001F0F7FC002804D1304801F084FD7E
:10157000002043E0322000F0D4FE0B22012100A81D
:1015800001F020FD002804D1294801F075FD00205C
:1015900034E09DF80010274801F06EFD26480178E0
:1015A000264801F069FD9DF80000212825D1002082
:1015B000040021480078A4B280B2844218D2A4B2B8
:1015C0001F4810EB44004178A4B21D4810F81400E5
:1015D00080B201F0BFFC002808D1A4B2184810F86E
:1015E0001410184801F048FD002007E0641CE0E7F3
:1015F000154801F041FD012000E0002016BD00006B
:1016000000E100E080E100E0D824FF1F50F00F402F
:101610000C800040248000400201020012010900F9
:10162000500CFF1FA0900440109000404C5B000045
:10163000B45B00005C5A0000B80CFF1FD45A0000D5
:10164000540CFF1F645B0000805A000010B50400BA
:101650004FF4007094FBF0F101FB1041002903D01E
:101660001E210B4801F02FFD0A48046010BD38B55B
:1016700004000D00074800680749884203D0302164
:10168000034801F020FD64B2034840F8245031BD06
:101690009859000008ED00E00000FF1F38B5040075
:1016A0000D00002D03D12221174801F00CFD174831
:1016B000006850F4000015490860154800210160D9
:1016C00064B2200113496A1E425064B2114810EB03
:1016D0000410C06850F0010064B20E4911EB04110F
:1016E000C86064B20B4810EB0410806840084000EA
:1016F00064B2084911EB0411886064B2054810EB2C
:1017000004100321816031BD185900003C80044061
:10171000007003400071034080B5002201214F207A
:1017200001F090F800220121532001F08BF80022F3
:101730000121602001F086F800220121612001F0E2
:1017400081F8002201219B2001F07CF801BD0000FE
:101750000821DFF8D024D268126852F00202DFF8C4
:10176000C434DB681A60DFF8BC249268126832F473
:101770000042DFF8B0349B681A600A00511ED2B2F2
:10178000002A2DD002060AD5DFF898249268126844
:1017900052F40022DFF88C349B681A6009E0DFF80D
:1017A00084249268126832F40022DFF878349B684F
:1017B0001A60DFF870249268126852F40042DFF871
:1017C00064349B681A6000BFDFF85824926812687E
:1017D00032F40042DFF84C349B681A604000CCE7DA
:1017E000704700000821DFF83C24D268126832F00C
:1017F0000202DFF83034DB681A60DFF828249268D0
:10180000126832F40042DFF81C349B681A600A0048
:10181000511ED2B2002A2DD002060AD5DFF80424C8
:101820009268126852F40022DFF8F8339B681A605D
:1018300009E0DFF8F0239268126832F40022DFF842
:10184000E4339B681A60DFF8DC239268126852F474
:101850000042DFF8D0339B681A6000BFDFF8C42372
:101860009268126832F40042DFF8B8339B681A605D
:101870004000CCE7704738B504000D00B5F15000CA
:10188000C0B2FFF7AFFFE4B2200950F01000C0B2C1
:10189000FFF7A8FF14F00F00FFF7A4FF31BD70B5EC
:1018A000040000200500EDB2082D17D2B5F150005C
:1018B000C0B2FFF797FF0020FFF794FF1020FFF75B
:1018C00091FF00200600F6B2822E05D22000C0B2A1
:1018D000FFF73EFF761CF6E76D1CE4E770BD80B2B3
:1018E000002809D041F6132211000A00511E92B2BD
:1018F000002AFAD1401EF2E7704710B504002020FC
:10190000FFF770FF2000C0B2FFF76CFF10BD10B5ED
:10191000040054F04000C0B2FFF764FF10BD10B5E2
:1019200004008120FFF75EFF2000C0B2FFF75AFFDE
:1019300010BD10B504008D20FFF754FF54F01000C7
:10194000C0B2FFF74FFF10BD10B5040054F0A00067
:10195000C0B2FFF747FF10BD10B5040054F0A4005B
:10196000C0B2FFF73FFF10BD10B5040054F0A60051
:10197000C0B2FFF737FF10BD10B50400A820FFF775
:1019800031FF2000C0B2FFF72DFF10BD10B50400DD
:1019900054F0AE00C0B2FFF725FF10BD10B5040033
:1019A00054F0C000C0B2FFF71DFF10BD10B5040019
:1019B000D320FFF717FF2000C0B2FFF713FF10BDC1
:1019C00010B50400D520FFF70DFF2000C0B2FFF7CF
:1019D00009FF10BD10B50400D920FFF703FF200058
:1019E000C0B2FFF7FFFE10BD10B50400DA20FFF70C
:1019F000F9FE54F00200C0B2FFF7F4FE10BD10B5BE
:101A00000400DB20FFF7EEFE2000C0B2FFF7EAFE85
:101A100010BD80B5FFF780FEDFF80802806800681F
:101A200050F40040DFF8FC1189680860DFF8F40129
:101A3000C068006840084000DFF8E811C968086025
:101A40003220FFF74CFFDFF8DC01C068006850F07F
:101A50000100DFF8D011C96808600020FFF796FF89
:101A60008020FFF7ADFF3F20FFF786FF0020FFF744
:101A70009DFF0020FFF74BFF0420FFF75AFF0220D5
:101A8000FFF73BFF0120FFF75FFF0820FFF786FF0E
:101A90001020FFF7A9FFCF20FFF741FFF120FFF74C
:101AA00099FF4020FFF7ABFF0020FFF755FF002014
:101AB000FFF75AFF0120FFF769FF0020FFF7EFFE55
:101AC00000210020FFF7D7FE01BD2DE9F041040001
:101AD0008846150000260027B5F120000600E4B274
:101AE0007B2C03D30020040018F101084146C9B241
:101AF0002000C0B2FFF7BFFE00200700FFB2062F94
:101B00000BD2FFB2F6B20620DFF8081200FB061077
:101B1000385CFFF71DFE7F1CF0E7BDE8F0812DE982
:101B2000F84F04000D0093460FFA8BFBBBF1000F3A
:101B30000BD52D222900C9B22000C0B2FFF7C5FF86
:101B40000FFA8BFBDBF1000B06E02B222900C9B258
:101B50002000C0B2FFF7B9FF0FFA8BFB42F2107002
:101B60009BFBF0F081460FFA8BFB42F210709BFB5F
:101B7000F0F100FB11B04FF47A7190FBF1F0824666
:101B80000FFA8BFB4FF47A709BFBF0F100FB11B066
:101B9000642190FBF1F006000FFA8BFB64209BFBA5
:101BA000F0F100FB11B00A2190FBF1F007000FFAF1
:101BB0008BFB0A209BFBF0F100FB11B0804619F172
:101BC0003002D2B22900C9B2A01DC0B2FFF77DFF1A
:101BD0001AF13002D2B22900C9B214F10C00C0B21D
:101BE000FFF773FF16F13002D2B22900C9B214F127
:101BF0001200C0B2FFF769FF17F13002D2B229001C
:101C0000C9B214F11800C0B2FFF75FFF18F130023B
:101C1000D2B22900C9B214F11E00C0B2FFF755FFBD
:101C2000BDE8F18FA40BFF1F2DE9F0415FF0000824
:101C300000200400E4B2072C33D2B4F15000C0B24B
:101C4000FFF7D0FD0020FFF7CDFD1020FFF7CAFD04
:101C500000200500EDB2502D21D200200600F6B282
:101C6000082E14D25FFA88F85FEA5808EDB2E4B2A1
:101C7000E00050FA86F05021274A01FB0020285C42
:101C80000700002F01D158F08008761CE7E7404696
:101C9000C0B2FFF75DFD002080466D1CDAE7641CD2
:101CA000C8E7B4F15000C0B2FFF79CFD0020FFF779
:101CB00099FD1020FFF796FD00200500EDB2502D94
:101CC00025D200200600F6B2042E14D25FFA88F85E
:101CD0005FEA5808EDB2E4B2E00050FA86F0502115
:101CE0000D4A01FB0020285C0700002F01D158F0AD
:101CF0008008761CE7E75FFA88F85FEA1818404624
:101D0000C0B2FFF725FD002080466D1CD6E7BDE878
:101D1000F0810000345200009011FF1F38B504001C
:101D20000D0064B2002C06D0022C69D04CD3032CD9
:101D300000F08280C7E0DFF85404006850F0807043
:101D4000DFF8481408606DB2002D0BD0022D15D0BD
:101D50000ED3042D1ED017D3062D27D020D3072D48
:101D60002AD02FE04FF48061412000F039FE2AE0B4
:101D70004FF48061422000F033FE24E04FF4806194
:101D8000432000F02DFE1EE04FF48061442000F05F
:101D900027FE18E04FF44071072000F021FE12E00A
:101DA0004FF48061652000F01BFE0CE04FF4806171
:101DB000662000F015FE06E04FF48061672000F019
:101DC0000FFE00E07FE07EE0DFF8C003006850F027
:101DD0000070DFF8B81308606DB2002D02D0012D3D
:101DE00006D00BE04FF440710C2000F0F9FD06E046
:101DF0004FF440710D2000F0F3FD00E063E062E07D
:101E0000DFF88C03006850F08070DFF884130860FE
:101E10006DB2002D02D0012D06D00BE04FF44071C1
:101E20000A2000F0DDFD06E04FF440710B2000F0C9
:101E3000D7FD00E047E046E0DFF85403006850F0CB
:101E40000070DFF84C1308606DB2002D0BD0022D2E
:101E500015D00ED3042D1ED017D3062D27D020D396
:101E6000072D2AD02EE04FF4C061852000F0B8FD88
:101E700028E04FF4C061862000F0B2FD22E04FF46C
:101E8000C061872000F0ACFD1CE04FF4C0618820E9
:101E900000F0A6FD16E04FF4C061892000F0A0FD1F
:101EA00010E04FF4C0618A2000F09AFD0AE04FF480
:101EB000C0618B2000F094FD04E04FF4C0618C20E1
:101EC00000F08EFDFFE731BD2DE9F84F04000D0055
:101ED00016001F0064B2002C11D064B2012C02D095
:101EE00064B2022C02D16DB2022D08DB64B2032C65
:101EF00005D040F28511DFF89C0201F0E4F82900DA
:101F000049B2200040B2FFF709FFDFF88C020068F9
:101F10004FF47A71484380465FEA1840B0FBF6F010
:101F20008146002082461FFA89F959FA0AF00128F1
:101F300002DB1AF1010AF6E75FFA8AFABAF1080F32
:101F400005D34FF4D071DFF84C0201F0BCF838FA39
:101F50000AF0B0FBF6F0814664B2DFF840021FFAE7
:101F600089F940F8249064B2002C05D0022C1AD0D4
:101F70000DD3032C22D02DE01FFA89F919F10100AD
:101F800000FB07F06421B0FBF1F0834622E01FFA6A
:101F900089F919F1010000FB07F042F21071B0FB62
:101FA000F1F0834616E01FFA89F919F1010000FBF0
:101FB00007F06421B0FBF1F083460BE01FFA89F9CA
:101FC00019F1010000FB07F0DFF8D411B0FBF1F0CC
:101FD0008346FFE76DB264B2DFF8C80150F8240011
:101FE00010EBC5006DB264B2DFF8B81151F82410DF
:101FF00011EBC501C96831F00401C1606DB264B272
:10200000DFF8A00150F8240010EBC5002821C160C2
:1020100064B2DFF8900150F824005FFA8AFA1AF0EF
:10202000070151F00801016064B2DFF8780150F84F
:1020300024001FFA89F9C0F8089064B2DFF864013F
:1020400050F824000021C1646DB264B2DFF854017D
:1020500050F8240010EBC5001FFA8BFBC0F810B03D
:1020600064B2DFF8400150F8240000214160BDE86F
:10207000F18F2DE9F04104000D0016005FF000081B
:1020800064B2002C11D064B2012C02D064B2022CD4
:1020900002D16DB2022D08DB64B2032C05D04FF4DF
:1020A000F371DFF8F00001F00EF864B2002C05D0F7
:1020B000022C17D00BD3032C1DD027E0652E05D39F
:1020C0004FF4F671DFF8CC0000F0FDFF1EE042F2A5
:1020D0001170864205D34FF4F871DFF8B80000F0B4
:1020E000F2FF13E0652E05D34FF4FA71DFF8A40078
:1020F00000F0E9FF0AE0DFF8B000864205D340F2C5
:10210000F911DFF8900000F0DEFFFFE764B2DFF8BE
:102110008C0050F82400804664B2002C05D0022CBC
:1021200016D00BD3032C1CD025E018F1010000FBC6
:1021300006F06421B0FBF1F007001CE018F101008B
:1021400000FB06F042F21071B0FBF1F0070012E064
:1021500018F1010000FB06F06421B0FBF1F007006C
:1021600009E018F1010000FB06F0DFF83410B0FBC5
:10217000F1F00700FFE76DB264B2DFF8280050F815
:10218000240010EBC5000761BDE8F0813C800440ED
:1021900030800440C0570000D424FF1FBC24FF1F20
:1021A000A0860100940BFF1FA186010010B504005A
:1021B00064B2042C07DA0122012164B22548205CB4
:1021C00000F040FB0EE0042004002000441E40B25A
:1021D000002807D00122012164B21E48205C00F0D3
:1021E00031FBF2E710BD38B504000D0064B2042CD9
:1021F00007DA2900C9B264B21648205C00F079FB06
:102200000EE0042004002000441E40B2002807D045
:102210002900C9B264B20F48205C00F06AFBF2E703
:1022200031BD10B5040064B2042C05DA64B209486B
:10223000205C00F097FB0CE0042004002000441E0A
:1022400040B2002805D064B20248205C00F08AFB4E
:10225000F4E710BD4C0CFF1FF8B400AB224C2588EE
:102260001D8005000C001600721E002E3AD0267844
:102270003300641CDBB2DE1100AFF65D2E706D1C06
:10228000C3F38016F6B200AFF65D2E706D1CC3F37B
:102290004016F6B200AFF65D2E706D1CC3F300164B
:1022A000F6B200AFF65D2E706D1CC3F3C006F6B239
:1022B00000AFF65D2E706D1CC3F38006F6B200AF62
:1022C000F65D2E706D1CC3F34006F6B200AFF65DEE
:1022D0002E706D1CDBB213F0010600AFF65D2E70A0
:1022E0006D1CC0E7F1BC70476624000010B5040007
:1022F000002C15D0B4F1807F03D329210F4800F0C2
:10230000E2FE0F48002101600E4804600E480021E3
:1023100001600B480521016009480068C003FBD536
:1023200010BD10B504002000441E002804D007484A
:102330000068FFF7DBFFF6E710BD0000145800004F
:1023400010E000E014E000E018E000E0CC24FF1F03
:1023500070B44FF0004591EA030C44BF6B4000F0AD
:10236000BBB900BF841A71EB030603D2001BB14155
:10237000121973414FF4001C1CEB410F34BF7CEB6E
:10238000430443E00C0DA4EB1356352E50DC45EA14
:10239000C323DB0A45EAC121C912B6F120050DDDD0
:1023A00063FA05F6EB4086EA0305124218BF45F0D2
:1023B0000105C01851F100010CD213E062FA06F5D4
:1023C000F2405540F3415A40B340F3405A40801820
:1023D000594107D349085FEA30005FEA350528BF55
:1023E00045F0010501F58011420875F1004250F1F8
:1023F000000041EB045170BC4FF4001C1CEB410F7A
:1024000038BF70470020090D090570471CEB410FCC
:1024100010D252EA43060BD0BCEB410F05D80C0D8D
:10242000AB43661E342EB5DD02E0AB438018594144
:1024300070BC704770BC70474FF4001C1CEB410F20
:1024400094BF1CEB430F09E041EA030C50EA4C0C2B
:1024500052EA0C0C03D28B4208BF8242704714BF71
:10246000994290427047FF00010040F10980F44614
:10247000404200F005F851F000416047010000BF04
:1024800009D0B0FA80F18840C91CC1F58461090502
:1024900001EBD02140057047F446400D40EAC120D1
:1024A000490006D200F014F8004248BF6FF0004027
:1024B000604700F00DF84FF0004188428CBF08469D
:1024C00040426047400D40EAC120490080F00D8045
:1024D00040F00040490DA1F58061491C05D4D1F1BF
:1024E0001F0154BFC840C01770474FF0000070472D
:1024F000B0B581EA030C0CF0004C40F2FF7515EA10
:1025000011541DBF15EA1357AC42AF4239E0E4192C
:1025100023EA455343F48013C90241F0004141EAE4
:10252000505EC7021100A7FB020200284FF0000016
:10253000EEFB01204FF00001E3FB072118BF42F042
:102540000102401800214941E3FB0E01A4F580641B
:102550000F0302D252004041494154F101046CDDA5
:10256000470872F1004250F1000051EB0451A1F50F
:1025700080115CBF41EA0C01B0BD4CEA055100205E
:10258000B0BD05EA1357AC4214BFAF4241E050EA78
:10259000410E1CBF52EA430E02E061460020B0BD6E
:1025A00024423C441BD15FEA070EF6D0090302BF68
:1025B00001460020AEF1140EB1FA81F7AEEB07042C
:1025C00001FA07FE0C37C7F1200100FA07F7C840EF
:1025D0004EEA000E23EA455343F48013A2E733F09A
:1025E0000043B3FA83F704BFB2FA82FE77440B3F8D
:1025F000E41BB7F1200E2FBF02FA0EF3BB40C7F168
:10260000200E22FA0EFE38BF43EA0E03BA40641CC5
:1026100082E750EA410E14BF52EA430E6FF0000108
:102620004FF4001717EB430F8ABF194617EB410F02
:10263000B5E74CEA05510020B0BDD4F10104B4F176
:1026400020070FDAC4F12007520828BF42F0010228
:1026500010FA07F501FA07F7E1BF2A43E0403843D3
:10266000E1400FE0352C98DCC7F1200452EA40022B
:1026700020FA07F218BF42F0010231FA07F0A14038
:102680000A43002172F1004250F1000051EB0C01AD
:10269000B0BD00004FF4001C1CEB410F94BF1CEBBD
:1026A000430F09E041EA030C50EA4C0C52EA0C0CCF
:1026B00003D2994208BF9042704714BF8B428242B6
:1026C0007047000070B44FF0004591EA030F44BF1B
:1026D0006B40FFF747BE00BF841A71EB030604D2BC
:1026E0006E40001BB141121973414FF4001C1CEBEA
:1026F000410F34BF7CEB430684E00C0DA4EB135672
:10270000362E7DDC012E43DC45EAC32343EA5253D7
:1027100012BFD20292025B08240545EAC12141EAB8
:102720005051D2EBC020994125D407D1B0FA80F6A0
:1027300010FA06F164D00020203608E0B1FA81F6E4
:10274000B140C6F1200220FA02F21143B0404FEA34
:10275000F474B4EB465434F001064FEA74040AD81A
:10276000D6F50016760D04F00044F04061FA06F24A
:102770005040F1404840C00A40EA415021F0004139
:1027800028BF5FEA500550F1000044EBD12137E04B
:1027900045EAC323DB0A45EAC121C90AB6F120058F
:1027A0000EDD42EA0242120CC5F1200603FA06F6DB
:1027B000EB4042EA06056D42984161F100010DE0EF
:1027C00062FA06F5F240554063FA06FC82EA0C0212
:1027D000F3405A406D42904161EB030111F4801FB8
:1027E00005D1641E620502D06D004041494121F4CB
:1027F0008011430875F1004350F1000041EB045192
:1028000070BC70471CEB410F15D223F0004352EA15
:1028100043060BD04FEA4C0CBCEB410F04D80C0D17
:10282000661E342EB7DDEBE7801A994150EA410667
:1028300008BF0021E4E708BF1CEB430F28BF6FF07F
:102840000001DDE770B504000D0016004FF4807143
:102850002000C0B200F0C4F86DB2002D11D1E4B276
:1028600060115D4951F82000E4B261115A4A52F8F2
:1028700021104969012214F01F039A4091434161DC
:1028800036E0E4B26011544951F82000E4B261111D
:10289000514A52F821104969012214F01F039A404D
:1028A00011434161F6B2002E11D1E4B260114A49E0
:1028B00051F820000068012114F01F029140884364
:1028C000E4B26111444A52F82110086010E0E4B209
:1028D0006011414951F820000068012114F01F02E5
:1028E00091400843E4B261113B4A52F8211008605C
:1028F00070BD38B504000D00E4B26011364951F8DE
:102900002000406914F01F01C840C00703D46321B0
:10291000324800F0D8FBEDB2002D11D1E4B26011C5
:102920002D4951F820000068012114F01F02914048
:102930008843E4B26111284A52F82110086010E07F
:10294000E4B26011244951F820000068012114F01C
:102950001F0291400843E4B261111F4A52F821104E
:10296000086031BD10B50400E4B260111A4951F895
:102970002000406914F01F01C840C00703D47B2128
:10298000164800F0A0FBE4B26011134951F8200092
:10299000012114F01F029140C16010BD10B5040068
:1029A000E4B260110C4951F82000406914F01F0195
:1029B000C840C00703D58C21084800F084FBE4B26E
:1029C0006011054951F82000006914F01F01C8404A
:1029D00010F0010010BD0000A40BFF1FD85800002C
:1029E00010B4294A12684FF40073C0B24409A340DE
:1029F0001A43254B1A60C0B24211244B53F82220CF
:102A0000012310F01F04A340C2F8A030C0B210F0A0
:102A10001F02C0B243111D4C54F8233043F822105A
:102A200010BC704710B4184A12684FF40073C0B25B
:102A30004409A3401A43144B1A60C0B24211134B0D
:102A400053F82220012310F01F04A340C2F8A03045
:102A500031F4E061C0B210F01F02C0B243110B4C60
:102A600054F8233053F8222012F4E0621143C0B22C
:102A700010F01F02C0B24311044C54F8233043F845
:102A8000221010BC7047000038800440140CFF1F57
:102A90002DE9F84380460C005FEA981010F007001B
:102AA000C0B25FEA40194046103810F03F00C0B293
:102AB000C000050015EB09000700E4B217EBC400E5
:102AC000401E0600F6B2FFB2BE420DD30022002126
:102AD0003800C0B2FFF7B6FE4FF481713800C0B2C3
:102AE000FFF77EFF7F1CEDE7BDE8F1832DE9F84F8E
:102AF00004000D0016001F009DF92880DDF82C90C1
:102B0000DDF830A04FFA88F8B8F1000F02D15FF07D
:102B1000010B11E04FFA88F8B8F1010F02D15FF014
:102B2000020B09E04FFA88F8B8F1020F02D15FF00A
:102B3000040B01E05FF0100B4FFA88F8B8F1000FBA
:102B400005D16748854202D36648A84221D24FFA90
:102B500088F8B8F1010F09D16148854206D362486F
:102B6000A84203D315F00300032812D14FFA88F8C6
:102B7000B8F1020F09D15A48854206D35B48A842F2
:102B800003D315F00300002803D06121584800F05A
:102B90009AFAB9F5004F03D36321554800F093FA30
:102BA0005448006850F002005249086052480068DA
:102BB00050F002005049086064B260014F4945502E
:102BC00064B2600100F1804010F51040066164B20B
:102BD000600100F1804010F510400021818064B256
:102BE000600100F1804010F510405FFA8BFBA0F807
:102BF00014B04FFA88F85FEA082010F4E0604FFA4A
:102C000088F818F00701084364B2610101F18041BE
:102C100011F51041C88064B2600100F1804010F5E8
:102C2000104049464904490CC18264B2600100F178
:102C3000804010F5104049464904490CC183304892
:102C4000006830F080002E49086064B2600100F135
:102C5000804010F510405FFA8BFBC0F808B064B2FA
:102C6000600100F1804010F510400021C160504625
:102C7000C00702D4D9F1000000E0002064B2610175
:102C800001F1804111F51041886164B2600100F1E9
:102C9000804010F510404CF20A018183FFB27809A0
:102CA000313050F0800064B2164960541649380043
:102CB000C0B2FFF795FE5946C9B22800FFF7E8FEFB
:102CC000124800680121A14088431049086010485B
:102CD00000680121A14008430D490860BDE8F18F5B
:102CE00010F00F4013F10F4012F10F4010F10F40A0
:102CF00058580000408004403C8004400090004050
:102D00000080004000100240000101000C800040E3
:102D10002480004001B4BDF80000002805D0BDF8B3
:102D20000000401EADF80000F5E701B0704780B527
:102D3000012201211A20FFF785FD0122012119201E
:102D4000FFF780FD23211A20FFF76CFE23211920B5
:102D5000FFF768FE01BD80B57A48012101607A481D
:102D6000012101604FF4C870FFF7D4FF77480021BC
:102D7000016077480068002804D17448012101608F
:102D8000002016E07148012101606E4800210160B9
:102D90004FF4C870FFF7BEFF6B48002101606C481C
:102DA0000068002804D0694801210160002000E08B
:102DB000012002BD80B56448002101606148002106
:102DC00001604FF4C870FFF7A5FF5F480121016063
:102DD0004FF4C870FFF79EFF5A48012101604FF47D
:102DE000C870FFF797FF01BD80B55748002101600B
:102DF0004FF4C870FFF78EFF5248002101604FF476
:102E0000C870FFF787FF5048012101604FF4C87078
:102E1000FFF780FF4C48002101604FF4C870FFF7B6
:102E200079FF01BD80B54848002101604FF4C870AA
:102E3000FFF770FF4348012101604FF4C870FFF7AE
:102E400069FF4148012101604FF4C870FFF762FF3C
:102E50003D48002101604FF4C870FFF75BFF01BDE2
:102E600080B53948002101603848002101604FF4E5
:102E7000C870FFF74FFF3448012101604FF4C8705C
:102E8000FFF748FF32480068002807D02F4801218B
:102E900001602D4800210160002006E02B4801213F
:102EA0000160294800210160012002BD38B50500FC
:102EB00008242000441EC0B2002818D0280603D5DC
:102EC00020480121016002E01E48002101606D00E0
:102ED0004FF4C870FFF71EFF1B48012101604FF43B
:102EE000C870FFF717FF184800210160E1E731BD06
:102EF00038B5082400251548002101602000441E33
:102F0000C0B2002815D06D000F48002101604FF4B9
:102F1000C870FFF7FFFE0C48012101604FF4C87034
:102F2000FFF7F8FE0A4800680028E7D055F00105D1
:102F3000E4E7064801210160034800210160EDB289
:102F4000280032BD6400FE436800FE43E402FE43F5
:102F50006402FE4370B504000D0000262900C9B2CA
:102F6000200080B200F00AF8002805D1761CF6B2E5
:102F7000142EF3D1002000E0012070BD38B504000C
:102F80000D00FFF7E8FE002801D1002019E04220E3
:102F9000FFF78CFFFFF764FF002803D1FFF70AFF5C
:102FA00000200EE02000C0B2FFF780FFFFF758FFBF
:102FB0002800C0B2FFF77AFFFFF752FFFFF7FAFED3
:102FC000012032BDF8B504000D00160000273200C4
:102FD000D2B2290089B2200000F00AF8002805D1F9
:102FE0007F1CFFB21E2FF2D1002000E00120F2BDB5
:102FF00070B504000D001600FFF7ADFE002801D1EA
:10300000002037E04220FFF751FFFFF729FF00289B
:1030100003D1FFF7CFFE00202CE03000C0B2FFF755
:1030200045FFFFF71DFFFFF7C5FEFFF794FE0028E1
:1030300001D100201EE04320FFF738FFFFF710FF0B
:10304000002803D1FFF7B6FE002013E0ADB2002D3B
:103050000DD0FFF74DFF2070ADB2012D02D1FFF76B
:10306000E1FE01E0FFF7C0FE641C6D1EEEE7FFF716
:10307000A1FE012070BD00000EB400B582B003A90E
:103080000091024600AB0121034878440A3000F069
:10309000ADF806BC5DF810FBE52A0000DFF800F093
:1030A0002D0DFF1FDFF800F0510DFF1FBFF34F8FF5
:1030B0004648006810F4E060454908434349086009
:1030C000BFF34F8FFEE738B504000D000020FFF777
:1030D0006DF82A0021003F48FFF7CEFF0020FFF7E0
:1030E000A0F84FF47A70FFF71CF9F2E738B5040046
:1030F0000D00210049B2022000F07CFF200032BD0B
:1031000010B500240420FEF735F90420FEF768F915
:10311000002841D10020FFF749F80420FEF760F9AC
:10312000012801D1012004000020FFF77AF82A4885
:10313000FFF7A2FF4FF4FA70FFF7F3F8E4B2012CA7
:10314000EBD10420FEF74CF90028E6D10420FEF76D
:1031500047F9002806D10020FFF763F86420FFF745
:10316000E0F8F3E70420FEF73BF9012806D1002040
:10317000FFF757F83220FFF7D4F8F3E71748FFF7C7
:103180007BFFFFF78BFF6420FFF7CBF80020FFF7F2
:1031900089FFFFF78BFFC0E710BD10B5104804682A
:1031A0000120FFF703F80120FFF73BF8E4B20F20FE
:1031B0000C4900FB0412E4B221000B48FFF75CFF4E
:1031C0004FF47A70FFF7ADF8EDE700000CED00E08A
:1031D0000400FA05385A0000A05B0000B45A000051
:1031E00004ED00E08C04FF1FD45900002DE9F04FDE
:1031F000A1B08246002017461D4602910B900DF1AA
:10320000440B6FF000490AE017F8011B0298D04701
:103210000290002800F0A3820B98401C0B90387895
:1032200008B90B989DE22528EED100200590069064
:103230000790089009900A9001E040F0010017F80B
:10324000011F2029F9D023290DD02B2904D02D29A5
:1032500006D030290AD00CE040F0020080B2EEE740
:1032600040F00400FAE740F00800F7E740F01000F3
:10327000F4E72A290ED12968296051F8042B296026
:103280000D92002A04D5514240F004000D9180B205
:103290007F1C11E000210D9109E00D99494505D0F1
:1032A00001EB810302EB430130390D917F1C3A7829
:1032B000A2F130010A29F0D339782E2903D04FF03A
:1032C000FF310C911DE017F8011F2A2907D1296849
:1032D00029607F1C51F8042B29600C9211E0002119
:1032E0000C9109E00C99494505D001EB810302EBF3
:1032F000430130390C917F1C3A78A2F130010A2940
:10330000F0D3ADF838000FF6B820397800F08CFE15
:1033100008B117F8010B8DF83A009DF83A006828BB
:1033200002BF39786829622005D06C2804BF38783C
:103330006C2803D171208DF83A007F1C11A80490ED
:1033400017F8014BB4F1250024D02038022840F2B0
:10335000C680133800F0EC800B3800F05081401E1E
:1033600000F02581401E022840F2B980001F00F0C5
:103370001E81401F00F08480401E00F0D980401E56
:1033800029D0C01E0CD0801E00F0D280C01E00F0DC
:10339000CF803EE10120059025208DF8440044E1D6
:1033A0002868286050F8044B28600394DDF83080CA
:1033B000B8F1000F04D5204600F042FE804607E039
:1033C00042460021204600F057FE08B1A0EB040859
:1033D000CDF8188029E1296829604FF03C0851F8A0
:1033E000040B29600021CDE9000111A80390DDE95B
:1033F0000001049C11B908B90C9ACAB10206120F57
:10340000A0EB02123032A8F1010ED2B2F0463A2AF5
:10341000A8BF273200090EF8042040EA017009090C
:1034200008BF002804D0039A08EB04039A42E5D3AE
:1034300008EB04000390C8F13C010C98069181420E
:1034400009DA401A08904FF6EF71BDF838000840CD
:10345000ADF83800E9E0002840F1E7809DF8380039
:1034600000F01400102840F0E0800D98059A801AB2
:10347000089A801A401A0128C0F2D7800890D4E038
:103480009DF83A0062281AD0682806D06A280CD025
:103490006C281CD0712808D019E02868286050F8E2
:1034A000041B28600B980880BFE02868286050F84B
:1034B000042B28600B98C117C2E90001B5E0286809
:1034C000286050F8041B28600B980870ADE028684D
:1034D000286050F8041B28600B980860A5E0286855
:1034E000C01D20F007022A60D2E9000108322A60DC
:1034F000CDE90001002903D5012005902D200CE025
:10350000BDF83800810703D5012005902B2004E089
:10351000C00704D50120059020208DF844000599AE
:1035200011A808180390214600A800F0D7F97CE004
:103530009DF83A206C2A0DD0712A18BF6A2A09D149
:103540002868C01D20F007032B60D3E90001083371
:103550002B6005E02968296051F8040B29600021DF
:10356000CDE90001682A08BF80B207D0622A08BFEF
:10357000C0B203D0742A18BF7A2A02D10021CDE943
:1035800000019DF83800000730D5DDE90001002971
:1035900008BF00282AD044F02000782826D1302007
:1035A0008DF844008BF80140022005901EE029466A
:1035B0009DF83A0000F0D8F8CDE90001002904DABE
:1035C0000598411C05912D210EE0BDF838008107BA
:1035D00004D50598411C05912B2105E0C00705D5B0
:1035E0000598411C0591202100F80B10059911A8A0
:1035F00008180390214600A800F0EDF815E001201E
:1036000005902868286050F8041B28608DF8441045
:103610000BE00120059025208DF84400002C04D0FB
:103620000598411C059100F80B400D980599401A2A
:103630000899401A0699401A0999401A0799401AA0
:103640000A99A0EB01089DF8380040070FD420200C
:103650008DF84000002408E0012310AA00A950467C
:1036600000F097FB00287AD1641C4445F4DB059CEC
:1036700011AE0AE016F8011B0298D047029000280C
:103680006DD00B98401C0B90641E002CF2D13020A2
:103690008DF840000026089C08E0012310AA00A92C
:1036A000504600F076FB002859D1761CA642F4DB88
:1036B000069C039E0AE016F8011B0298D047029070
:1036C00000284CD00B98401C0B90641E002CF2D1AB
:1036D00030208DF840000026099C07E0012310AA45
:1036E00000A9504600F055FBC8BB761CA642F5DB8E
:1036F00003980699079C0E1809E016F8011B02981A
:10370000D047029058B30B98401C0B90641E002CBD
:10371000F3D130208DF8400000260A9C07E00123F9
:1037200010AA00A9504600F034FBC0B9761CA6428E
:10373000F5DB9DF8380040077FF571AD20208DF84E
:103740004000002400E0641C4445BFF668AD01233E
:1037500010AA00A9504600F01CFB0028F3D04FF03F
:10376000FF3021B0BDE8F08F622826D068281DD038
:103770006A2808D06C2827D0712804D0742823D058
:103780007A280CD020E00868C01D20F007000860EF
:10379000D0E90023083008601946104670470A68CF
:1037A0000A6052F8040B0A60002170470A680A6038
:1037B00052F8040B0A6000B20BE00A680A6052F883
:1037C000040B0A6040B204E00A680A6052F8040B75
:1037D0000A60C11770472DE9FA4E05460A462F695F
:1037E0006F2A08BF082405D041F02000782814BFB4
:1037F0000A241024D5E900013C2681468A46642A21
:1038000018BF692A05D1002903DAD9F100096AEB4A
:103810004A0ABAF1000F08BFB9F1000F0CD1286BAA
:1038200050B9082C36D195F83800000732D5302031
:103830003B2687F83B002DE0E317484651462246D9
:1038400000F046FCA4FB0023A9EB02023032A6F1F3
:10385000010BD2B25E463A2A03DB9DF80030513BA1
:103860009A180BF8072081465FEA010A08BFB9F1F0
:10387000000F03D0E868F1198842DDD3082C09D184
:1038800095F83800000705D5F05D302802D0761E87
:103890003020F055C6F13C00A861F119E960296BB0
:1038A000884208DA081A28624FF6EF71288F08401C
:1038B0002887BDE8F38E00290ED595F8381001F061
:1038C0001401102908D1696B6A69891A2A6A891A50
:1038D000081A0128A8BF2862BDE8F38E2DE9F34F2E
:1038E0008BB0D0E90089006B01AF002848BF0620EB
:1038F00005D404BF41F02000672802D101200B99B4
:10390000086340F2FF720B984168C1F30A5090427D
:1039100020D1080302BF0B98006800280AD10B9938
:10392000032088619DF8300061381A2858D30FF2BF
:10393000A44109E00B99032088619DF830006138AB
:103940001A284AD30FF284410B98C068032200F072
:1039500037FC00E1012807DA0B9800F06CFC012825
:1039600002DB00230026EDE00B9A526840F2FE31A4
:1039700061F31E520B994A6040F2FE31461A4046EE
:10398000494600220023FEF785FE38BF89F0004932
:1039900036B247F2975070434949DFF828B190FB9F
:1039A000F1F636B2C6F107079246012F1BDBF80786
:1039B00007D552465B4640464946FEF799FD80468C
:1039C00089467F105046594652465B46FEF790FDA9
:1039D00082468B46002FEAD126E00FF2EC31B3E7A6
:1039E0000FF2EC31B0E77F420024374D12E0F807C8
:1039F00007D552465B4620462946FEF779FD044628
:103A00000D467F105046594652465B46FEF770FD04
:103A100082468B46002FEAD14046494622462B4635
:103A200000F02AFC804689469DF8300040F02005D1
:103A3000662D0CBF06F10A0006200B99096B47188A
:103A4000142FA8BF132730208DF804000DF10504B2
:103A5000DFF878B0012F3BDB40464946FEF732FDE8
:103A6000014604F1080204234FF00A0CB1FBFCFCF0
:103A70000CEB8C04A1EB4401303102F8011D0A214A
:103A8000BCFBF1FE0EEB8E04ACEB4404303471460B
:103A900002F8014D5B1EE7D1083F02F10804012F37
:103AA000D8DBFEF7EBFC02460B4640464946FEF7E4
:103AB00009FE00225B46FEF71BFD80468946CBE7E8
:103AC000A0860100000024400000F03F84D7974109
:103AD0000DF10500201A0DF1050702E0401E761ECB
:103AE0007F1C39783029F9D0662D02D136B2711C8D
:103AF00003E0652D0CBF012100210B9A126B8B187E
:103B00001BB29842B8BF03461BB219001AD48142B7
:103B100004DAC85D3528A8BF392000DA3020CA1978
:103B2000521E00E05B1E12F80159491E8542F9D071
:103B3000392802D1C85D401CC855002902D57F1E16
:103B40005B1C761C36B29DF830100B9800961BB2A9
:103B50003A4600F003F80DB0BDE8F08F2DE9F047CC
:103B600086B006468A4690461D4600F0C6FC406A6E
:103B7000376B90F80090012D02DA01250FF25828DA
:103B80004AF02000BDF93840662808BF641C13D0F5
:103B9000672840F0888014F1040F73DBBC4271DAAF
:103BA00096F83800641C000702D4BD42B8BF2F4607
:103BB00024B23F1B48BF0027F068B16924B2012C32
:103BC00021DA30234A1C0B54012F03DA96F83810FF
:103BD000090702D502F80090521CB261E742B8BF53
:103BE0007C4224B26142E7197162AF42B8BF3D46E0
:103BF0002DB2F5612A46B3694146181800F0E0FA83
:103C0000781BB062AEE00818A54216DA2A46414693
:103C100000F0D6FAB1696918B161601B7062012FBA
:103C200003DA96F83800000705D5F06801F800902F
:103C3000F069401CF061B76294E02246414600F012
:103C4000BFFAB06920182D1B012F03DA96F838103F
:103C5000090703D5F16800F80190401C2DB2B0614E
:103C6000AF42B8BF3D46F068B3692DB22A4604EBB7
:103C70000801181800F0A4FAB0692818B061781B80
:103C800070626FE0BD4204DA96F83810090758BF39
:103C90002F467F1E48BF0027BAF1670F0CBF4FF0B9
:103CA000650A4FF0450AB169F06818F8013B0B54FA
:103CB0004A1C012F05DA96F83810090758BFB2617F
:103CC00015D502F80090531CB361012F0FDB6D1E58
:103CD0002DB2AF42B8BF3D462DB22A464146181814
:103CE00000F06EFAB0692818B061781B7062F06855
:103CF000B16901EB0008200008F801AB03D42B20C8
:103D000008F8010B03E02D2108F8011B644200258F
:103D100002AF08E00A2200A800F008FC019807F8AA
:103D2000010B6D1C009C21B20129F3DA022D06DA89
:103D30004AF02000652804BF302008F8010B4DB977
:103D4000302008F8010B07E06D1E02A8285C303017
:103D500008F8010B012DF7DAF068B1690818A8EB33
:103D60000000F06196F8380000F0140010280DD122
:103D70007069B1690818716A0818F1690818B16AA0
:103D80000818716B8842BCBF081A306206B0BDE8E3
:103D9000F087F8B504460D4616461F46002004E09D
:103DA000E86A401CE8627F1E002047B116F8011B3C
:103DB000A868A047A8600028F2D14FF0FF30F2BDFC
:103DC000686A6C747A4C00006E616E004E414E0061
:103DD000696E6600494E4600300000002DE9F84348
:103DE00004000D0064B2002C08D0022C2CD018D393
:103DF000042C4FD03BD3052C5FD071E0DFF81002CC
:103E0000006850F48060DFF8081208604FF44071D9
:103E10006620FEF7E5FD4FF440716720FEF7E0FDF8
:103E20005EE0DFF8EC01006850F40060DFF8E011BC
:103E300008604FF440714320FEF7D2FD4FF440710B
:103E40004420FEF7CDFD4BE0DFF8C401006850F4DC
:103E50008050DFF8BC1108604FF440716320FEF71A
:103E6000BFFD4FF440716220FEF7BAFD38E0DFF885
:103E7000A001006850F40050DFF8941108604FF47E
:103E800040715020FEF7ACFD4FF440715120FEF719
:103E9000A7FD25E0DFF87C01006850F48060DFF8C2
:103EA000741108604FF440714E20FEF799FD4FF4F5
:103EB00040714F20FEF794FD12E0DFF858010068D2
:103EC00050F40060DFF84C1108604FF44071682036
:103ED000FEF786FD4FF440716920FEF781FDFFE794
:103EE00064B2DFF8340150F82400C07810F0F30019
:103EF00064B2DFF8241151F82410C87064B2DFF8FE
:103F0000180150F8240064B2DFF80C1151F82410A5
:103F10008978817064B2002C02D064B2012C07D180
:103F2000DFF8F80000684FF47A714843814606E0F4
:103F3000DFF8EC0000684FF47A71484381462801AD
:103F4000B9FBF0F00600B6B2B6F5005F02D341F659
:103F5000FF700600B9FBF5F0B6B2B0EB0610070033
:103F6000BFB2202F03D3DC212E48FFF7ACF864B298
:103F7000294850F82400007810F0E0008046B6B2DE
:103F8000300A10F01F0050EA080064B2224951F8CC
:103F90002410087064B2204850F82400467064B2BF
:103FA0001D4850F82400807A10F0E000804664B28A
:103FB000194850F8240017F01F0151EA08018172D6
:103FC00064B2154850F82400007C50F0880064B2B8
:103FD000114951F82410087464B20F4850F82400B5
:103FE000C07850F00C0064B20B4951F82410C8702E
:103FF000BDE8F18340B2084A52F820201279120637
:10400000F8D540B2044A52F82020D1717047000020
:104010003480044028800440280CFF1FCC24FF1F5C
:10402000D424FF1F585900000278C9B28A421AB13D
:104030001CBF10F8012FF9E718BF002070470000DF
:1040400000F10103810704D010F8011B89B1810739
:10405000FAD10268B2F10131914311F0803F04BFFF
:1040600050F8042FF6E710F8011B11B110F8011BEE
:10407000FBE7C01A70470000C9B2830706D0521E82
:1040800022D310F8013B9942F7D11FE0083A13D32D
:1040900002F1040241EA012141EA014150F8043BE6
:1040A000121F21BF4B40A3F1013C2CEA030C1CF072
:1040B000803FF3D0C9B2001F083210F8013B521EF6
:1040C00028BF91EA030FF8D818BF0120401E70479F
:1040D0001B4213D1094236D12AB18446B0FBF2F01B
:1040E00002FB10C2704700F029BAFCD30022002363
:1040F00070470B000200002100207047904271EBD6
:10410000030CF6D370B5B1FA81F4B3FA83F52C1B26
:10411000A340C4F1200532FA05F63343A2405FF014
:104120000046E64002E05B085FEA3202841A71EB67
:10413000030524BF204629467641F4D302000B0034
:104140003000002170BD012ACFD970B5140C20D0E9
:10415000B1FA81F4B2FA82F5C4F120046419B4F121
:104160002006D6D3B2405FF00044F440002502E0C0
:1041700052085FEA3303C61A71EB020E24BF3046C1
:10418000714664416D41F3D302000B002000290009
:1041900070BD0C46B1FBF2F102FB11452D0445EA5E
:1041A0001045B5FBF2F402FB145580B240EA054518
:1041B000B5FBF2F002FB105240EA044070BD000073
:1041C00062B38B0708D0521E11F8013B00F8013B87
:1041D00000F024808B07F6D1830740F0208000BFD9
:1041E000103A07D330B4B1E83810103AA0E83810CC
:1041F000F9D230BC530724BFB1E80810A0E808107A
:1042000044BF51F8043B40F8043BD20724BF31F8C7
:10421000022B20F8022B44BF0B7803707047083A3A
:1042200007D3B1E80810083A40F8043B40F804CB43
:10423000F7D25307E4E730B4436803F000420121AA
:104240001B031B0B436004BF0368002B08D10DE068
:104250000368DD0F45EA440444605B000360491EC7
:104260004468E302F4D523031B0B436043681A43FD
:104270004260084630BC7047F0B540F2FF7581EAF5
:10428000030C0CF0004C15EA11541DBF15EA13572E
:10429000AC42AF42E5E0BC41C1F31301C3F31303E9
:1042A000801A994143F4801304D2641E40004941AE
:1042B00080185941C90241EA5051B1FBF3F603FBA2
:1042C0001611A2FB0675D7EBC020A94102D2761EBB
:1042D00080185941C90241EA5051B1FBF3FE03FB7A
:1042E0001E11A2FB0E75D7EBC020A94103D2AEF17F
:1042F000010E80185941890241EA9051760546EA3B
:104300008E2EB1FBF3F603FB1611A2FB0675D7EB5D
:104310008020A94102D2761E80185941C90241EA83
:1043200050514EEA060EB1FBF3F603FB1611A2FB49
:104330000675D7EBC020A94102D2761E80185941DC
:10434000C90241EA5051B1FBF3F703FB1711A2FB7D
:104350000735D3EBC020A94167F100070CBF00422D
:1043600047F0010766F3D5274FEA1E31B80814F568
:10437000806412DDBD0775F1004250EB0E5051EB29
:10438000045111F5801F5CBF41EA0C01F0BD4CF0F7
:104390007F6141F0E0410020F0BDBD076D0840EABB
:1043A0000E5041F48011D4F10104B4F120060ADA70
:1043B000C4F120060200E04001FA06F3E140184390
:1043C000B24015430EE0342C13DCC6F1200445EA5C
:1043D00040056D0820FA06F2154321FA06F0A140C7
:1043E0000D43002175F1004250F1000051EB0C012A
:1043F000F0BD00205FEA0C01F0BDCFB992185B411F
:10440000B3FA83F704BFB2FA82F6BF190B3FB7F1D4
:1044100020062FBF02FA06F3BB40C7F1200622FA9E
:1044200006F638BF3343BA401CB1E419641E33E7C3
:104430007F4231F00041B1FA81F404BFB0FA80F656
:10444000A4190B3CB4F120062FBF00FA06F1A140DD
:10445000C4F1200620FA06F638BF3143A0403C1BC9
:104460001AE7AC421ABF05EA1357AF4212E050EA0E
:1044700041061CBF52EA4306BFE750EA41073046F7
:1044800061461CBF41EA0551F0BD52EA430C08BF2A
:10449000C143F0BD00204FF4001616EB410F98BF4A
:1044A00016EB430F08BF16EB410F24BFC14305E0D5
:1044B00016EB430F0CBF61464CEA0551F0BD0000FE
:1044C00080B5134800F03BF80FF2480101604160ED
:1044D0008160C1600161416181610FF23C02426211
:1044E0008162C162016341630FF2300282630FF2A5
:1044F0003402C2630164416401BD10B5044800F098
:104500001EF80446206808B9FFF7DAFF204610BD00
:104510003825FF1F000000002E00000066616C734C
:1045200065000000747275650000000091FBF2F3F5
:1045300003FB1211C0E9003170470000704770475B
:10454000000000000000F03F000000000000F03F0D
:10455000030000001A000000000000001900000025
:10456000190000001700000001000000000000001A
:10457000FFFFFFFFE9FFFFFFE7FFFFFFE7FFFFFF91
:10458000000000000000000017000000FFFFFFFF18
:10459000E7FFFFFF1900000000000000E7FFFFFF3A
:1045A0001900000001000000E9FFFFFF000000000B
:1045B000DE3500003831000003000000000000007C
:1045C00000000000000000000000000000000000EB
:1045D000000000000000000000004E6F6E4D61738F
:1045E0006B61626C65000000004861726446617531
:1045F0006C740000000000004D656D4D616E6167D8
:10460000656D656E7400004275734661756C74006B
:1046100000000000000055736167654661756C74A9
:10462000000000000000000000000000000000008A
:10463000000000000000000000000000000000007A
:10464000000000000000000000000000000000006A
:10465000000000000000000000000000000000005A
:1046600000535643616C6C00000000000000000025
:1046700044656275674D6F6E69746F72000000006B
:104680000000000000000000000000000000506575
:104690006E64535600000000000000000053797360
:1046A0005469636B0000000000000000444D41307D
:1046B0000000000000000000000000444D413100F7
:1046C00000000000000000000000444D41320000E6
:1046D000000000000000000000444D4133000000D5
:1046E0000000000000000000444D413400000000C4
:1046F00000000000000000444D41350000000000B3
:10470000000000000000444D4136000000000000A1
:104710000000000000444D41370000000000000090
:1047200000000000444D413800000000000000007F
:10473000000000444D41390000000000000000006E
:104740000000444D41313000000000000000000036
:1047500000444D4131310000000000000000000025
:10476000444D4131320000000000000000000044D0
:104770004D41313300000000000000000000444DB6
:1047800041313400000000000000000000444D41B1
:10479000313500000000000000000000444D415F82
:1047A0004572726F720000000000004D434D000022
:1047B000000000000000000000004654464C0000CD
:1047C000000000000000000000526561645F436F5C
:1047D0006C6C6973696F6E004C56445F4C565700A1
:1047E000000000000000004C4C57000000000000DA
:1047F0000000000000005761746368646F67000088
:104800000000000000524E470000000000000000C1
:1048100000000000493243300000000000000000AA
:104820000000004932433100000000000000000099
:10483000000053504930000000000000000000005C
:10484000005350493100000000000000000000004B
:1048500053504932000000000000000000000043F7
:10486000414E305F4F525F4D425F6275660043417B
:104870004E305F4275735F4F666600000043414EE5
:10488000305F4572726F72000000000043414E308D
:104890005F54785F5761726E696E6743414E305F57
:1048A00052785F5761726E696E6743414E305F5751
:1048B000616B655F557000000052657365727665C7
:1048C00064353100000000005265736572766564DE
:1048D0003532000000000043414E315F4F525F4DC2
:1048E000425F6275660043414E315F4275735F4FB0
:1048F000666600000043414E315F4572726F720080
:104900000000000043414E315F54785F5761726E82
:10491000696E6743414E315F52785F5761726E69CD
:104920006E6743414E315F57616B655F55700000A4
:1049300000526573657276656435390000000000C9
:10494000526573657276656436300000000000556C
:10495000415254305F52585F545800000000554196
:104960005254305F45525200000000000055415241
:1049700054315F52585F5458000000005541525462
:10498000315F455252000000000000554152543240
:104990005F52585F54580000000055415254325F36
:1049A00045525200000000000055415254335F52FE
:1049B000585F54580000000055415254335F45522F
:1049C0005200000000000055415254345F52585FBD
:1049D00054580000000055415254345F4552520073
:1049E000000000000055415254355F52585F545842
:1049F0000000000055415254355F455252000000FE
:104A000000000041444330000000000000000000AE
:104A1000000041444331000000000000000000009D
:104A200000434D5030000000000000000000000076
:104A3000434D503100000000000000000000004322
:104A40004D503200000000000000000000004654FD
:104A50004D30000000000000000000000046544DF2
:104A600031000000000000000000000046544D32FC
:104A70000000000000000000000000434D54000052
:104A8000000000000000000000005254430000003D
:104A9000000000000000000000526573657276653A
:104AA000643833000000000050495430000000001A
:104AB00000000000000000504954310000000000D8
:104AC00000000000000050495432000000000000C7
:104AD00000000000005049543300000000000000B6
:104AE00000000000504442300000000000000000C0
:104AF000000000555342300000000000000000009C
:104B000000005553424443440000000000000000F0
:104B100000454E45545F313538385F54696D6572D4
:104B2000454E45545F5472616E736D697400004563
:104B30004E45545F52656365697665000000454ED9
:104B400045545F4572726F72000000000049325395
:104B50003000000000000000000000005344484303
:104B6000000000000000000000000044414330004D
:104B7000000000000000000000004441433100003C
:104B80000000000000000000005453493000000005
:104B900000000000000000004D434700000000003E
:104BA000000000000000004C5054696D6572000068
:104BB0000000000000005265736572766564313054
:104BC0003200000000504F5254410000000000002D
:104BD00000000000504F525442000000000000004E
:104BE000000000504F52544300000000000000003D
:104BF0000000504F5254440000000000000000002C
:104C000000504F525445000000000000000000001A
:104C10005265736572766564313038000000005269
:104C20006573657276656431303900000000526545
:104C3000736572766564313130000000005265732F
:104C4000657276656431313100000000526573652C
:104C5000727665643131320000000052657365720E
:104C600076656431313300000000526573657276F9
:104C700065643131340000000052657365727665F9
:104C800064313135000000005265736572766564E9
:104C9000313136000000005265736572766564310B
:104CA00031370000000052657365727665643131FA
:104CB00038000000005265736572766564313139E1
:104CC00000000000008003400090034000800B4083
:104CD00000900B4000F00F4040F00F4080F00F407C
:104CE000C0F00F4000F10F4066000A1D32000701BE
:104CF000640007106E000406780004088200040AAD
:104D00008C00040C9600040EA0000410AA000412EB
:104D1000B4000414BE000416C8000418D200041A1B
:104D2000DC00041CE100041DE600041EEB00041F6F
:104D3000F4000317FA000318130101062C010214F2
:104D4000000109080090044000A0044000B00440A5
:104D500000C0044000D0044000A0064000B006405F
:104D600000C0064000D0064000A00E4000B00E403B
:104D7000808182838467686A6B000000343536372F
:104D8000010000000DC1110009030CD01240173FB3
:104D9000185019031A783200A00A63E0ACFF650CC2
:104DA0006600670029142C1E2A007E0C7F16802ABC
:104DB000814E8261836F847B8586868E879788A4E7
:104DC00089AF8AC58BD78CE88D204A0049134708E4
:104DD0004B144C17460522992303A6049B009C54B0
:104DE000AB069E119F020000310000000204010189
:104DF000DC24FF1F2C25FF1FDC24FF1FDC24FF1FEA
:104E0000DC24FF1FF90CFF1FE00CFF1F0000000057
:104E10000000000000000000000000000000000092
:104E2000000000000000000000000000DFF800F0BB
:104E3000A10EFF1F40B2DFF8E01331F8201040B29E
:104E40000128C0F28F8140B2162880F28B81DFF8F2
:104E5000CC230023137089B2652904D2DFF8BC2368
:104E60000023537089E089B2C92904D2DFF8AC234A
:104E70000123537081E040F22D1289B2914204D295
:104E8000DFF898230223537077E040F2911289B241
:104E9000914204D2DFF88423032353706DE040F283
:104EA000F51289B2914204D2DFF8702304235370C3
:104EB00063E040F2592289B2914204D2DFF85C23C8
:104EC0000523537059E040F2BD2289B2914204D2C9
:104ED000DFF84823062353704FE040F2213289B2B5
:104EE000914204D2DFF834230723537045E040F2A7
:104EF000853289B2914204D2DFF82023082353700F
:104F00003BE040F2E93289B2914204D2DFF80C234F
:104F10000923537031E040F24D4289B2914204D2EC
:104F2000DFF8F8220A23537027E040F2B14289B239
:104F3000914204D2DFF8E4220B2353701DE040F2CB
:104F4000155289B2914203D2B44A0C23537014E033
:104F500040F2795289B2914203D2B04A0D23537084
:104F60000BE040F2DD5289B2914203D2AB4A0E23EC
:104F7000537002E0A94A0F23537089B2332903D238
:104F8000A64A0023937078E089B2652903D2A34A28
:104F90000123937071E089B2972903D29F4A0223BB
:104FA00093706AE089B2C92903D29C4A03239370A3
:104FB00063E089B2FB2903D2984A042393705CE032
:104FC00040F22D1289B2914203D2944A0523937084
:104FD00053E040F25F1289B2914203D28F4A062316
:104FE00093704AE040F2911289B2914203D28B4A07
:104FF0000723937041E040F2C31289B2914203D279
:10500000864A0823937038E040F2F51289B2914243
:1050100003D2824A092393702FE040F2272289B2FB
:10502000914203D27D4A0A23937026E040F259222E
:1050300089B2914203D2794A0B2393701DE040F26A
:105040008B2289B2914203D2744A0C23937014E0EC
:1050500040F2BD2289B2914203D2704A0D2393706F
:105060000BE040F2EF2289B2914203D26B4A0E2349
:10507000937002E0694A0F23937089B21A2903D210
:10508000664A0023D3706DE089B2332903D2634AA4
:105090000123D37066E089B24C2903D25F4A022310
:1050A000D3705FE089B2652903D25C4A0323D370D1
:1050B00058E089B27E2903D2584A0423D37051E0C4
:1050C00089B2972903D2554A0523D3704AE089B2A1
:1050D000B02903D2514A0623D37043E089B2C929CB
:1050E00003D24E4A0723D3703CE089B2E22903D2AF
:1050F0004A4A0823D37035E089B2FB2903D2474AD4
:105100000923D3702EE04FF48A7289B2914203D200
:10511000424A0A23D37025E040F22D1289B291420F
:1051200003D23E4A0B23D3701CE089B2B1F5A37FB2
:1051300003D23A4A0C23D37014E040F25F1289B2D2
:10514000914203D2354A0D23D3700BE04FF4BC7269
:1051500089B2914203D2314A0E23D37002E02F4A22
:105160000F23D370704710B50400200040B2FFF742
:1051700061FE2B48007810F0FD002949087028488E
:10518000007850F01000264908702648B8210170B8
:1051900025480078C006FBD423480078C0F381007E
:1051A000C0B20228F8D11D48C3781C4882781B4839
:1051B00041781A480078FFF739FE64B2164810EBC0
:1051C0008400807810F007001849087064B2124813
:1051D00010EB8400C07810F01F0050F0400014491C
:1051E0000870114800788006FBD50F48007840060B
:1051F000FBD50C48007810F03F000A4908700A48B7
:105200000078C0F38100C0B20328F8D164B202482C
:1052100030F82400C0B210BDB80BFF1F100CFF1FE8
:10522000014006400040064006400640044006405B
:10523000054006400000000000000000002F0000B4
:1052400000000700070000147F147F1400242A7F49
:105250002A120062640813230036495522500000C8
:105260000503000000001C224100000041221C0038
:105270000014083E08140008083E0808000000A0BA
:1052800060000008080808080000606000000020B6
:1052900010080402003E5149453E0000427F400094
:1052A000004261514946002141454B31001814121A
:1052B0007F10002745454539003C4A4949300001E7
:1052C0007109050300364949493600064949291E36
:1052D0000000363600000000563600000008142298
:1052E0004100001414141414000041221408000298
:1052F0000151090600324959513E007C1211127CBD
:10530000007F49494936003E41414122007F4141E9
:10531000221C007F49494941007F09090901003EDB
:105320004149497A007F0808087F0000417F410019
:10533000002040413F01007F08142241007F40408F
:105340004040007F020C027F007F0408107F003E77
:105350004141413E007F09090906003E4151215E5D
:10536000007F091929460046494949310001017F5A
:105370000101003F4040403F001F2040201F003FF0
:105380004038403F006314081463000708700807A2
:1053900000615149454300007F414100000204087B
:1053A0001020000041417F0000040201020400407F
:1053B0004040404000000102040000205454547852
:1053C000007F484444380038444444200038444472
:1053D000487F00385454541800087E090102001810
:1053E000A4A4A47C007F080404780000447D40004D
:1053F000004080847D00007F102844000000417F31
:105400004000007C04180478007C0804047800380C
:105410004444443800FC242424180018242418FC94
:10542000007C0804040800485454542000043F44FD
:105430004020003C4040207C001C2040201C003CC0
:105440004030403C004428102844001CA0A0A07C10
:10545000004464544C44141414141414DFF800F081
:1054600023230000DFF800F0C73000005548F0218A
:105470000170544800780006FBD55248007871212D
:10548000084201D0002000E00120704780B54E485E
:10549000006850F400204C4908604A480078000633
:1054A000FBD54848F02101700A20FFF7D7FF01BD66
:1054B00010B582B00400A4B24FF4805000FB04F099
:1054C00000904248092101709DF80200404908708F
:1054D0009DF801003F4908703F489DF80010017099
:1054E000FFF7C4FF002801D100200EE0A4B2002C79
:1054F0000AD15FF0FF327FF001034FF48161200099
:1055000080B200F003F800E0012016BDF0B583B0D2
:1055100006000F0014001D00B6B24FF48050BFB259
:1055200000FB06700190BFB2082097FBF0F101FB71
:105530001071002903D0EA212848FFF793FF41F2B8
:105540000100BFB2874203D3EC212448FFF78AFF52
:105550009DF806001E4908709DF805001D49087059
:105560001D489DF80410017000949DF803001C492B
:1055700008709DF802001B4908709DF801001A4947
:1055800008701A489DF8001001701048072101703A
:1055900000959DF80300164908709DF80200154912
:1055A00008709DF801001449087014489DF8001017
:1055B0000170FFF75BFF002801D1002000E001200F
:1055C000FEBD00000000024004F001400700024060
:1055D0000600024005000240040002409858000006
:1055E0000B0002400A00024009000240080002408D
:1055F0000F0002400E0002400D0002400C0002406D
:10560000F0B4114E366834000F4E366856F47F06FB
:105610000D4F3E600E0616F0706656EA00761705CE
:1056200017F470073E431F0417F470273E43074FDB
:105630003E6000263500EDB29D4201D26D1CFAE7B6
:10564000014E3460F0BC704700F0014044800440DB
:1056500080B500F095F800F02AF800F00AF8FDF7A0
:105660004FFD012201210420FDF7ECF8FAF734FF89
:10567000FEE780B50C20FFF776FD3349086032481D
:1056800000684FF47A714843304908602F48006839
:105690002F490968C1F30361491CB0FBF1F02D49A2
:1056A00008604FF416510220FEF798FB01BD2DE96A
:1056B000F8432948294988420DD000208046B8F592
:1056C000826F08D22448254951F8281040F8281044
:1056D00018F10108F3E72048FBF7B8FF204807005E
:1056E0002048060020480400A01B80464046B0F138
:1056F0000108002804D030783870761C7F1CF5E74C
:105700001A4881461A480500B5EB09008046404614
:10571000B0F10108002805D0002089F8000019F137
:105720000109F4E713481449144A531A98464346AA
:10573000B3F10108002B04D00B780370491C401C06
:10574000F5E7BDE8F1830000D024FF1FCC24FF1F44
:1057500044800440D424FF1F0000FF1F000000000D
:105760001004FF1F404500002C4E0000F00EFF1FEC
:105770003525FF1FFC0CFF1F5C5400005056000035
:1057800080B500F008F80C4800884FF6FE7108401C
:105790000949088001BDEFF3118072B607494CF248
:1057A00020520A8005494DF628120A80C0B200280E
:1057B00000D162B670470000002005400E20054071
:1057C000453A5CB5E7D7D3C9E8BCC6B4F3C8FC5CBE
:1057D000B3CCD0F25CB1C8C8FCB3CCD0F25CA3A807
:1057E000D0C2B0E5A3A9BBF9B4A1C9A8CFDF207688
:1057F00032205FBCD3B6A8CAB1BFD8D6C65C436856
:1058000069705C7372635C4D4B36305F66746D2EED
:1058100063000000453A5CB5E7D7D3C9E8BCC6B41D
:10582000F3C8FC5CB3CCD0F25CA3A8D0C2B0E5A3B3
:10583000A9BBF9B4A1C9A8CFDF2076325C4368695F
:10584000705C7372635C4D4B36305F53797354698F
:10585000636B2E6300000000453A5CB5E7D7D3C9FF
:10586000E8BCC6B4F3C8FC5CB3CCD0F25CA3A8D04F
:10587000C2B0E5A3A9BBF9B4A1C9A8CFDF20763295
:105880005C436869705C7372635C4D4B36305F6477
:105890006D612E6300000000453A5CB5E7D7D3C9BF
:1058A000E8BCC6B4F3C8FC5CB3CCD0F25CA3A8D00F
:1058B000C2B0E5A3A9BBF9B4A1C9A8CFDF20763255
:1058C0005C436869705C7372635C4D4B36305F6635
:1058D0006C6173682E630000453A5CB5E7D7D3C9A5
:1058E000E8BCC6B4F3C8FC5CB3CCD0F25CA3A8D0CF
:1058F000C2B0E5A3A9BBF9B4A1C9A8CFDF20763215
:105900005C436869705C7372635C4D4B36305F67F3
:1059100070696F2E63000000453A5CB5E7D7D3C9C4
:10592000E8BCC6B4F3C8FC5CB3CCD0F25CA3A8D08E
:10593000C2B0E5A3A9BBF9B4A1C9A8CFDF207632D4
:105940005C436869705C7372635C4D4B36305F50CA
:1059500049542E6300000000453A5CB5E7D7D3C92F
:10596000E8BCC6B4F3C8FC5CB3CCD0F25CA3A8D04E
:10597000C2B0E5A3A9BBF9B4A1C9A8CFDF20763294
:105980005C436869705C7372635C4D4B36305F7565
:105990006172742E63000000453A5CB5E7D7D3C945
:1059A000E8BCC6B4F3C8FC5CB3CCD0F25CA3A8D00E
:1059B000C2B0E5A3A9BBF9B4A1C9A8CFDF20763254
:1059C0005C436869705C7372635C6D6973632E63BA
:1059D000000000000A2A2A2A2A64656661756C7430
:1059E0005F69737220656E7465726564206F6E20E6
:1059F000766563746F722025642A2A2A2A2A0A0A85
:105A0000257320496E746572727570740000000011
:105A100010B5074979441831064C7C44163404E02B
:105A20000A68081D511888470146A142F8D110BDE7
:105A30007400000080000000417373657274696F28
:105A40006E206661696C656420696E202573206133
:105A500074206C696E652025640A00000A4765742D
:105A60002049442073756363657373A3AC53454E3B
:105A7000534F522049442069732030782578000024
:105A80000A4F56373732352052656769737465722D
:105A900020436F6E66696720537563636573732176
:105AA00000000000AFB8FFFF48160000F00EFF1F17
:105AB000000000000ABDF8D0D0BDE2CBF8B2D9D7C3
:105AC000F7A3ACC7EBD6D8D0C2CBA2C8EBB9CCBC3D
:105AD000FE0000000A436F6E6669672052656769C1
:105AE00073746572204E756D62657220697320252E
:105AF000642000004EF68851CEF20001086840F4A0
:105B0000700008604FF00070E1EE100A704700006E
:105B100000F00BF8002801D0FFF77AFF0020C04604
:105B2000C046FAF7D9FC00F002F80120704700F0F7
:105B300001B800000746384600F002F8FBE7000015
:105B40002021090326311820ABBEF9E70ABEAFB801
:105B5000E63A53434342D0B4CAFDBEDDB4EDCEF3C2
:105B6000000000000ABEAFB8E63AD0B4BCC4B4E648
:105B7000C6F730782578CAA7B0DC000038B50446EF
:105B80000D46284600F006F8A84218BF002420461B
:105B900032BD00000149FDF7A9BA00BFBC0CFF1FD0
:105BA0000ABDF8C8EBCBC0D1ADBBB7B5C8B4FDA337
:105BB000A10000000ABEAFB8E63AB6C1C8A1494488
:105BC000CAA7B0DC00000000C046C046FFF792FF45
:105BD000FFF79EFF00000000000000000000000032
:105BE00000000000000000000000000000000000B5
:105BF000FFFFFFFFFFFFFFFF0000000000000000AD
:105C00000000000000000000000000000000000094
:105C1000000000000000000000000000FFFFFFFF88
:105C2000FFFF000000000000000000000000000076
:105C30000000000000000000000000000000000064
:105C40000000000000000000000000000000000054
:0C5C500000000000000000000000000048
:0400000500005BC9D3
:00000001FF
