:10000000F8FF002011040000DF290000DF290000B4
:10001000DF290000DF290000DF290000DF290000C0
:10002000DF290000DF290000DF290000DF290000B0
:10003000DF290000DF290000DF290000DF290000A0
:10004000DF290000DF290000DF290000DF29000090
:10040000FFFFFFFFFFFFFFFFFFFFFFFFFEFFFFFFFD
:1004100062B603F00FFAFEE72DE9F04FA1B0804677
:1004200017461D46029102AE0020706211AC6FF0BB
:1004300000490AE017F8011B0298C0470290002803
:1004400000F07882706A401C7062387808B9706A6F
:1004500072E22528EED10020F06030617061B06159
:10046000F061306201E040F0010017F8011F20291F
:10047000F9D023290ED02B2904D02D2906D03029DC
:100480000CD00FE040F0020080B2EEE740F0040034
:1004900080B2EAE740F0080080B2E6E740F01000E2
:1004A00080B2E2E72A290DD129680A1D2A6009686D
:1004B000F162002904D54942F16240F0040080B2A3
:1004C0007F1C11E00021F16209E0F16A494505D085
:1004D00001EB810302EB43013039F1627F1C3A7872
:1004E000A2F130010A29F0D339782E291CBF4FF030
:1004F000FF31B1621CD117F8011F2A2906D12968E2
:100500000A1D2A600968B1627F1C11E00021B162F6
:1005100009E0B16A494505D001EB810302EB4301D3
:100520003039B1627F1C3A78A2F130010A29F0D348
:10053000308639780FF6242000F02EFD08B117F828
:10054000010B8DF83A009DF83A00682804D13878FC
:1005500068280AD1622005E06C2804BF38786C282E
:1005600003D171208DF83A007F1C11A8B0603A7851
:100570001046253821D02038022870D9133800F0D1
:100580009A800B3800F03781401E00F0DD80401E5D
:10059000022864D9001F00F0D780401F34D0401ECD
:1005A00000F08980401E24D0C01E0CD0801E00F0B8
:1005B0008280C01E00F07F8026E1F068411CF1605F
:1005C000252101552AE12868011D29600068706015
:1005D000B26A002A03D500F0EBFC30611EE1002175
:1005E00000F002FD00281ABF7168401AB06A30613D
:1005F00014E12868011D296000680021CDE900018F
:1006000011A870607821F2E09DF83A00622818D0B5
:10061000682806D06A280BD06C2819D0712807D01A
:1006200016E02868011D2960716A00680180F5E004
:100630002A68101D2860706AC1171268C2E900019B
:10064000ECE02868011D2960716A00680170E5E02E
:100650002868011D2960716A00680160DEE0286871
:10066000C01D20F007002860034603F10800286041
:10067000D3E90001CDE90001002904D5F068411C4F
:10068000F1602D210DE0308E810704D5F068411C0A
:10069000F1602B2105E0C00704D5F068411CF16032
:1006A00020210155F06811A940187060114600A87A
:1006B00000F0D8F9B2E09DF83A306C2B08BF2868FA
:1006C00011D0712B08BF286802D06A2B28680AD184
:1006D000C01D20F00700286084460CF10800286047
:1006E000DCE9000103E0011D296000680021CDE97B
:1006F0000001682B04BFDDE9000180B20BD0622B42
:1007000004BFDDE90001C0B205D0742B18BF7A2BFD
:1007100004D1DDE900010021CDE9000196F83000A7
:1007200000075FD5DDE90001002908BF002859D086
:1007300042F02000782855D1F06830210155401C46
:10074000411CF16002554DE09DF83A0062280CD042
:10075000682810D06A281AD06C2824D0712816D0A6
:10076000742820D07A280CD01DE02868011D29604B
:1007700090F900001BE02868011D2960B0F9000015
:1007800015E02868011D29600068002110E0286834
:10079000C01D20F007002860034603F10800286010
:1007A000D3E9000104E02868011D29600068C11731
:1007B000CDE90001DDE90001002904DAF068411CFF
:1007C000F1602D210DE0308E810704D5F068411CC9
:1007D000F1602B2105E0C00704D5F068411CF160F1
:1007E00020210155F06811A940187060114600A839
:1007F00000F0A5F812E0F068411CF16029680A1DBC
:100800002A600968015509E0F068411CF160252162
:1008100001551AB1F068411CF16002557F1CF06A65
:10082000F168401AB169401A3169401AF169401AF9
:100830007169401A316AA0EB010A96F8300040074E
:1008400011D420208DF84000BAF1010F0BDBD34604
:10085000012310AA00A9404600F069FB002869D1D5
:10086000BBF1010BF4D1F36811AA00A9404600F0D6
:100870005EFB00285ED130208DF84000D6F818B01D
:10088000BBF1010F0ADB012310AA00A9404600F0CA
:100890004EFB00284ED1BBF1010BF4D133697268D5
:1008A00000A9404600F043FB002843D130208DF8DA
:1008B0004000D6F81CB0BBF1010F09DB012310AAE0
:1008C00000A9404600F033FBA0BBBBF1010BF5D102
:1008D000736930697168421800A9404600F027FB2F
:1008E00040BB30208DF84000D6F820B0BBF1010F9E
:1008F00009DB012310AA00A9404600F018FBC8B983
:10090000BBF1010BF5D196F8300040077FF59DADA6
:1009100020208DF84000BAF1010FFFF696AD0123BB
:1009200010AA00A9404600F002FB18B9BAF1010A6A
:10093000F5D18AE54FF0FF3021B0BDE8F08F2DE909
:10094000FA4B86B005462F696F2908BF082605D0E7
:1009500041F02000782814BF0A2610263C24D5E94F
:10096000000181468B469DF81820642A18BF692A29
:1009700005D1002903DAD9F100096BEB4B0BBBF170
:10098000000F08BFB9F1000F0CD1286B50B9082E29
:1009900044D195F83800000740D53B24302087F833
:1009A0003B003BE0A4F101084446F017CDE90460A8
:1009B00048465946DDE9042300F042FBCDE9020137
:1009C000CDE9009BDDE90223DDE90401A0FB029BE8
:1009D000DDE90001A0EB09003030C0B23A2803D3B2
:1009E0009DF818105139081808F80700DDE9029B36
:1009F000BBF1000F08BFB9F1000F03D0E868E1199F
:100A00008842CFD3082E09D195F83800000705D5C4
:100A1000E05D302802D0641E3020E055C4F13C0077
:100A2000A861E119E960296B884207DA081A28628F
:100A3000288F4FF6EF710840288710E000290ED567
:100A400095F8381001F01401102908D1696B6A6912
:100A5000891A2A6A891A0C1A012CA8BF2C6208B0BC
:100A6000BDE8F08B2DE9F24F8CB0054602AFD5E919
:100A70000089286B002848BF062005D404BF41F038
:100A80002000672801D101202863C9F30A5040F2F1
:100A9000FF7398421DD15FEA093008BFB8F1000F1B
:100AA00009D10320A8619DF8300061381A2857D376
:100AB0000FF2BC4108E00320A8619DF830006138C6
:100AC0001A284AD30FF2A0410322E86800F030FB55
:100AD00000E1010008D1284600F065FB0128A4BF11
:100AE0000023002680F2ED8040F2FE316A6861F357
:100AF0001E526A60461A404649460022002300F012
:100B000075FB38BF89F0004936B247F29750704301
:100B1000724990FBF1F636B2C6F107077049012F12
:100B200021DBC246CB4690468946F80707D550469A
:100B3000594642464B4600F071FB82468B467F1079
:100B40004046494642464B4600F068FB804689468F
:100B5000002FEAD1D046D94629E00FF20841B3E789
:100B60000FF20841B0E77F429246DFF878B1CDE955
:100B7000002114D0F80707D550465946DDE9002377
:100B800000F04CFB82468B467F10DDE90001DDE979
:100B9000002300F043FBCDE90001002FEAD14046DD
:100BA000494652465B4600F00BFC804689469DF85C
:100BB000300040F0200ABAF1660F0CBF06F10A00BF
:100BC0000620296B4418142CA8BF132430208DF85C
:100BD00008000DF10907012C34DB4046494600F0BE
:100BE00013FD014607F1080204234FF00A0CB1FB84
:100BF000FCF707EB870BA1EB4B01303102F8011D2D
:100C0000B7FBFCFC61460CEB8C0EA7EB4E073037B4
:100C100002F8017D5B1EE8D102F10807083C012CB7
:100C2000D9DB00F007FD02460B464046494600F07E
:100C30000FFD02460B4600202B4900F0EFFA8046DC
:100C40008946CAE70DF10900381A0DF109079DF828
:100C50000910302905D1401E761E17F8011F3029D2
:100C6000F9D0BAF1660F04BF36B2711C04D0BAF1E4
:100C7000650F0CBF012100212A6B8B181BB2984213
:100C8000B8BF03461BB2002B1BD41946814204DABD
:100C9000C85D352828BF392000D23020CA19521E1D
:100CA00000E05B1E491E12F801498442F9D0392840
:100CB00002D1C85D401CC855002902D57F1E5B1CAF
:100CC000761C36B200961BB23A469DF83010284684
:100CD00000F00CF80DB0BDE8F08F0000A086010018
:100CE000000024400000F03F84D797412DE9F047F1
:100CF00086B006468A4690461C46BDF9385000F03C
:100D000084FD406A90F80090376B012C02DA0124D0
:100D10000FF260284AF02000662808D0672840F0CB
:100D20008C806FF003018D4276DBBD4274DA6D1C5E
:100D300066280AD096F83800000702D4BC42B8BF33
:100D400027462DB27F1B48BF0027F068B1692DB23E
:100D5000012D21DA4A1C30230B54012F03DA96F8B7
:100D60003810090702D502F80090521CB261EF4218
:100D7000B8BF7D422DB269427162EF19A742B8BF78
:100D80003C4624B2F46122464146B369181800F08B
:100D9000CFF9381BB062B3E00818AC4216DA22462D
:100DA000414600F0C5F9B1696118B161281B706254
:100DB000012F03DA96F83800000705D5F06801F82E
:100DC0000090F069401CF061B76299E02A46414604
:100DD00000F0AEF9B0692818B061641B012F03DA86
:100DE00096F83810090704D5411CB161F16800F884
:100DF000019024B2A742B8BF3C4624B2224605EB7C
:100E00000801B069F368C01800F092F9B0692018C1
:100E1000B061381B706273E0BC4204DA96F8381097
:100E2000090758BF27467F1E48BF0027BAF1670F42
:100E30000CBF4FF0650A4FF0450AB1694A1CF068D3
:100E400018F8013B0B54012F03DA96F83810090704
:100E500002D502F80090521CB261012F10DB641E13
:100E600024B2A742B8BF3C4624B222464146B369E9
:100E7000181800F05DF9B0692018B061381B706275
:100E8000B069F16800EB010808F801AB002D5CBF08
:100E90002B2008F8010B03D52D2008F8010B6D421B
:100EA000002402AF2DB2012D0EDB0A22294600A834
:100EB00000F0C4FC019807F8010B009D641C2DB2E2
:100EC000012DF2DA022C06DA4AF02000652804BF70
:100ED000302008F8010B1CB9302008F8010B09E09C
:100EE000012C07DB641E02A8205C303008F8010BDF
:100EF000012CF7DAB069F1684018A8EB0000F06146
:100F000096F8380000F0140010280DD17069B1690E
:100F10000818716A0818F1690818B16A0818716B25
:100F20008842BCBF081A306206B0BDE8F087F8B549
:100F300004460D4616461F46002077B116F8011BE1
:100F4000A868A047A86030B1E86A401CE8620020A9
:100F50007F1EF3D1F2BD4FF0FF30F2BD686A6C74B2
:100F60007A4C00006E616E004E414E00696E660064
:100F7000494E4600300050F8041B61B150F8042B74
:100F8000D30744BFA9F101039A18002342F8043B98
:100F9000091FFAD1EFE770470278C9B28A421AB145
:100FA0001CBF10F8012FF9E718BF002070470000A0
:100FB00000F10103810704D010F8011B89B18107FA
:100FC000FAD10268B2F10131914311F0803F04BFC0
:100FD00050F8042FF6E710F8011B11B110F8011BAF
:100FE000FBE7C01A70470000C9B2830706D0521E43
:100FF00022D310F8013B9942F7D11FE0083A13D3EE
:1010000002F1040241EA012141EA014150F8043BA6
:10101000121F21BF4B40A3F1013C2CEA030C1CF032
:10102000803FF3D0C9B2001F083210F8013B521EB6
:1010300028BF91EA030FF8D818BF0120401E70475F
:101040001B4213D1094236D12AB18446B0FBF2F0DB
:1010500002FB10C2704700F0F9BBFCD30022002352
:1010600070470B000200002100207047904271EB96
:10107000030CF6D370B5B1FA81F4B3FA83F52C1BE7
:10108000A340C4F1200532FA05F63343A2405FF0D5
:101090000046E64002E05B085FEA3202841A71EB28
:1010A000030524BF204629467641F4D302000B00F5
:1010B0003000002170BD012ACFD970B5140C20D0AA
:1010C000B1FA81F4B2FA82F5C4F120046419B4F1E2
:1010D0002006D6D3B2405FF00044F440002502E081
:1010E00052085FEA3303C61A71EB020E24BF304682
:1010F000714664416D41F3D302000B0020002900CA
:1011000070BD0C46B1FBF2F102FB11452D0445EA1E
:101110001045B5FBF2F402FB145580B240EA0545D8
:10112000B5FBF2F002FB105240EA044070BD000033
:1011300062B38B0708D0521E11F8013B00F8013B47
:1011400000F024808B07F6D1830740F0208000BF99
:10115000103A07D330B4B1E83810103AA0E838108C
:10116000F9D230BC530724BFB1E80810A0E808103A
:1011700044BF51F8043B40F8043BD20724BF31F888
:10118000022B20F8022B44BF0B7803707047083AFB
:1011900007D3B1E80810083A40F8043B40F804CB04
:1011A000F7D25307E4E730B4416801F0004201216F
:1011B00043681B031B0B436004BF0368002B0ED066
:1011C00003684468DD0F45EA440444605B00036043
:1011D000491EE302F4D543681B031B0B43604368BD
:1011E0001A434260084630BC704700004FF4001CB0
:1011F0001CEB410F94BF1CEB430F09E041EA030CC9
:1012000050EA4C0C52EA0C0C03D2994208BF9042AF
:10121000704714BF8B42824270470000B0B581EA2C
:10122000030C0CF0004C40F2FF7515EA11541DBF81
:1012300015EA1357AC42AF4239E0E41923EA4553AB
:1012400043F48013C90241F0004141EA505EC702F5
:101250001100A7FB020200284FF00000EEFB012066
:101260004FF00001E3FB072118BF42F001024018D4
:1012700000214941E3FB0E01A4F580640F0302D273
:1012800052004041494154F101046CDD470872F1BC
:10129000004250F1000051EB0451A1F580115CBFF8
:1012A00041EA0C01B0BD4CEA05510020B0BD05EA91
:1012B0001357AC4214BFAF4241E050EA410E1CBF8D
:1012C00052EA430E02E061460020B0BD24423C4495
:1012D0001BD15FEA070EF6D0090302BF01460020CA
:1012E000AEF1140EB1FA81F7AEEB070401FA07FE76
:1012F0000C37C7F1200100FA07F7C8404EEA000E8C
:1013000023EA455343F48013A2E733F00043B3FAD2
:1013100083F704BFB2FA82FE77440B3FE41BB7F1B8
:10132000200E2FBF02FA0EF3BB40C7F1200E22FAA7
:101330000EFE38BF43EA0E03BA40641C82E750EA4F
:10134000410E14BF52EA430E6FF000014FF4001734
:1013500017EB430F8ABF194617EB410FB5E74CEA6D
:1013600005510020B0BDD4F10104B4F120070FDA1B
:10137000C4F12007520828BF42F0010210FA07F515
:1013800001FA07F7E1BF2A43E0403843E1400FE0AC
:10139000352C98DCC7F1200452EA400220FA07F20B
:1013A00018BF42F0010231FA07F0A1400A430021C0
:1013B00072F1004250F1000051EB0C01B0BD000091
:1013C000F0B540F2FF7581EA030C0CF0004C15EA11
:1013D00011541DBF15EA1357AC42AF42E5E0BC41C2
:1013E000C1F31301C3F31303801A994143F480132B
:1013F00004D2641E4000494180185941C90241EAA3
:101400005051B1FBF3F603FB1611A2FB0675D7EBA7
:10141000C020A94102D2761E80185941C90241EA72
:101420005051B1FBF3FE03FB1E11A2FB0E75D7EB6F
:10143000C020A94103D2AEF1010E801859418902A2
:1014400041EA9051760546EA8E2EB1FBF3F603FB96
:101450001611A2FB0675D7EB8020A94102D2761E99
:1014600080185941C90241EA50514EEA060EB1FBBB
:10147000F3F603FB1611A2FB0675D7EBC020A941BA
:1014800002D2761E80185941C90241EA5051B1FB7F
:10149000F3F703FB1711A2FB0735D3EBC020A941DB
:1014A00067F100070CBF004247F0010766F3D5273C
:1014B0004FEA1E31B80814F5806412DDBD0775F1DE
:1014C000004250EB0E5051EB045111F5801F5CBFF0
:1014D00041EA0C01F0BD4CF07F6141F0E041002099
:1014E000F0BDBD076D0840EA0E5041F48011D4F103
:1014F0000104B4F120060ADAC4F120060200E0403B
:1015000001FA06F3E1401843B24015430EE0342CD3
:1015100013DCC6F1200445EA40056D0820FA06F206
:10152000154321FA06F0A1400D43002175F1004258
:1015300050F1000051EB0C01F0BD00205FEA0C01FE
:10154000F0BDCFB992185B41B3FA83F704BFB2FA8A
:1015500082F6BF190B3FB7F120062FBF02FA06F340
:10156000BB40C7F1200622FA06F638BF3343BA4023
:101570001CB1E419641E33E77F4231F00041B1FA37
:1015800081F404BFB0FA80F6A4190B3CB4F1200634
:101590002FBF00FA06F1A140C4F1200620FA06F69A
:1015A00038BF3143A0403C1B1AE7AC421ABF05EAE2
:1015B0001357AF4212E050EA41061CBF52EA4306FD
:1015C000BFE750EA4107304661461CBF41EA05517A
:1015D000F0BD52EA430C08BFC143F0BD00204FF4F8
:1015E000001616EB410F98BF16EB430F08BF16EB22
:1015F000410F24BFC14305E016EB430F0CBF61460A
:101600004CEA0551F0BD0000400D40EAC120490000
:1016100080F00D8040F00040490DA1F58061491C2B
:1016200005D4D1F11F0154BFC840C01770474FF017
:1016300000007047010000BF09D0B0FA80F1884077
:10164000C91CC1F58461090501EBD0214005704733
:1016500070B44FF0004591EA030F44BF6B4000F0B7
:10166000F7B800BF841A71EB030604D26E40001B6A
:10167000B141121973414FF4001C1CEB410F34BFF0
:101680007CEB430684E00C0DA4EB1356362E7DDC78
:10169000012E43DC45EAC32343EA525312BFD20270
:1016A00092025B08240545EAC12141EA5051D2EB80
:1016B000C020994125D407D1B0FA80F610FA06F17E
:1016C00064D00020203608E0B1FA81F6B140C6F1BE
:1016D000200220FA02F21143B0404FEAF474B4EB56
:1016E000465434F001064FEA74040AD8D6F50016C1
:1016F000760D04F00044F04061FA06F25040F140EB
:101700004840C00A40EA415021F0004128BF5FEA4A
:10171000500550F1000044EBD12137E045EAC323E6
:10172000DB0A45EAC121C90AB6F120050EDD42EA0D
:101730000242120CC5F1200603FA06F6EB4042EA1B
:1017400006056D42984161F100010DE062FA06F56F
:10175000F240554063FA06FC82EA0C02F3405A401C
:101760006D42904161EB030111F4801F05D1641EAD
:10177000620502D06D004041494121F480114308C7
:1017800075F1004350F1000041EB045170BC70470B
:101790001CEB410F15D223F0004352EA43060BD055
:1017A0004FEA4C0CBCEB410F04D80C0D661E342ED6
:1017B000B7DDEBE7801A994150EA410608BF0021E6
:1017C000E4E708BF1CEB430F28BF6FF00001DDE723
:1017D00080B5134800F0A6F80FF24801016041609F
:1017E0008160C1600161416181610FF23C0242622E
:1017F0008162C162016341630FF2300282630FF2C2
:101800003402C2630164416401BD10B5044800F0B4
:1018100089F80446206808B9FFF7DAFF204610BDB2
:10182000D820FF1F000000002E00000066616C73CE
:1018300065000000747275650000000091FBF2F312
:1018400003FB1211C0E9003170470000704700002F
:10185000841A71EB030603D2001BB14112197341C4
:101860004FF4001C1CEB410F34BF7CEB430443E0FE
:101870000C0DA4EB1356352E50DC45EAC323DB0ACE
:1018800045EAC121C912B6F120050DDD63FA05F65E
:10189000EB4086EA0305124218BF45F00105C01867
:1018A00051F100010CD213E062FA06F5F240554006
:1018B000F3415A40B340F3405A408018594107D38E
:1018C00049085FEA30005FEA350528BF45F00105A9
:1018D00001F58011420875F1004250F1000041EB22
:1018E000045170BC4FF4001C1CEB410F38BF704713
:1018F0000020090D090570471CEB410F10D252EA78
:1019000043060BD0BCEB410F05D80C0DAB43661E54
:10191000342EB5DD02E0AB438018594170BC7047EE
:1019200070BC70477047000000000000000000001D
:1019300000000000000000000000000000000000A7
:101940000000000000004E6F6E4D61736B61626CB1
:101950006500000000486172644661756C740000A7
:10196000000000004D656D4D616E6167656D656ECF
:101970007400004275734661756C740000000000CD
:10198000000055736167654661756C740000000066
:101990000000000000000000000000000000000047
:1019A0000000000000000000000000000000000037
:1019B0000000000000000000000000000000000027
:1019C000000000000000000000000000005356432B
:1019D000616C6C000000000000000000446562754E
:1019E000674D6F6E69746F720000000000000000A8
:1019F0000000000000000000000050656E645356B7
:101A00000000000000000000005379735469636B0C
:101A10000000000000000000444D413000000000C4
:101A200000000000000000444D41310000000000B3
:101A3000000000000000444D4132000000000000A2
:101A40000000000000444D41330000000000000091
:101A500000000000444D4134000000000000000080
:101A6000000000444D41350000000000000000006F
:101A70000000444D4136000000000000000000005E
:101A800000444D413700000000000000000000004D
:101A9000444D4138000000000000000000000044F8
:101AA0004D41390000000000000000000000444DDE
:101AB00041313000000000000000000000444D41B2
:101AC000313100000000000000000000444D4131B1
:101AD0003200000000000000000000444D4131339E
:101AE00000000000000000000000444D41313400BF
:101AF000000000000000000000444D4131350000AE
:101B00000000000000000000444D415F4572726F0C
:101B1000720000000000004D434D00000000000076
:101B20000000000000004654464C00000000000089
:101B30000000000000526561645F436F6C6C697364
:101B4000696F6E004C56445F4C5657000000000011
:101B50000000004C4C570000000000000000000096
:101B600000005761746368646F6700000000000044
:101B700000524E470000000000000000000000007E
:101B8000493243300000000000000000000000491E
:101B900032433100000000000000000000005350FC
:101BA00049300000000000000000000000535049D0
:101BB00031000000000000000000000053504932D6
:101BC000000000000000000000000043414E305FB4
:101BD0004F525F4D425F6275660043414E305F4237
:101BE00075735F4F666600000043414E305F45727B
:101BF000726F72000000000043414E305F54785F06
:101C00005761726E696E6743414E305F52785F571D
:101C100061726E696E6743414E305F57616B655FFD
:101C20005570000000526573657276656435310049
:101C300000000000526573657276656435320000FD
:101C400000000043414E315F4F525F4D425F62756D
:101C5000660043414E315F4275735F4F6666000018
:101C60000043414E315F4572726F72000000000008
:101C700043414E315F54785F5761726E696E6743BE
:101C8000414E315F52785F5761726E696E674341B2
:101C90004E315F57616B655F557000000052657390
:101CA0006572766564353900000000005265736521
:101CB00072766564363000000000005541525430A1
:101CC0005F52585F54580000000055415254305F35
:101CD00045525200000000000055415254315F52FD
:101CE000585F54580000000055415254315F45522E
:101CF0005200000000000055415254325F52585FBC
:101D000054580000000055415254325F4552520071
:101D1000000000000055415254335F52585F545840
:101D20000000000055415254335F455252000000FC
:101D300000000055415254345F52585F545800001F
:101D4000000055415254345F4552520000000000DB
:101D50000055415254355F52585F545800000000FE
:101D600055415254355F4552520000000000004179
:101D70004443300000000000000000000000414427
:101D800043310000000000000000000000434D50FF
:101D9000300000000000000000000000434D503102
:101DA0000000000000000000000000434D50320021
:101DB0000000000000000000000046544D3000000C
:101DC00000000000000000000046544D31000000FB
:101DD000000000000000000046544D3200000000EA
:101DE00000000000000000434D540000000000000F
:101DF00000000000000052544300000000000000FA
:101E00000000000000526573657276656438330027
:101E100000000000504954300000000000000000A5
:101E20000000005049543100000000000000000094
:101E30000000504954320000000000000000000083
:101E40000050495433000000000000000000000072
:101E50005044423000000000000000000000005527
:101E60005342300000000000000000000000555305
:101E700042444344000000000000000000454E457D
:101E8000545F313538385F54696D6572454E45543D
:101E90005F5472616E736D69740000454E45545F06
:101EA00052656365697665000000454E45545F459F
:101EB00072726F720000000000493253300000005F
:101EC00000000000000000005344484300000000F0
:101ED000000000000000004441433000000000000A
:101EE00000000000000044414331000000000000F9
:101EF00000000000005453493000000000000000C2
:101F0000000000004D4347000000000000000000FA
:101F10000000004C5054696D657200000000000024
:101F200000005265736572766564313032000000DE
:101F300000504F525441000000000000000000001B
:101F4000504F5254420000000000000000000050BA
:101F50004F52544300000000000000000000504FAA
:101F600052544400000000000000000000504F5296
:101F70005445000000000000000000005265736539
:101F80007276656431303800000000526573657206
:101F900076656431303900000000526573657276F1
:101FA00065643131300000000052657365727665FA
:101FB00064313131000000005265736572766564EA
:101FC000313132000000005265736572766564310C
:101FD00031330000000052657365727665643131FB
:101FE00034000000005265736572766564313135E6
:101FF0000000000052657365727665643131360009
:1020000000000052657365727665643131370000F7
:1020100000005265736572766564313138000000E6
:1020200000526573657276656431313900000000D5
:1020300000F00F4040F00F4080F00F40C0F00F4024
:1020400000F10F40F0000A1D3000180032001801A6
:10205000600018186400181A6E00181F7800131812
:102060007D00131A8200131C8C000E1296000E15B0
:10207000A0000E18AA000E1BB4000E1EC8000C1CF7
:10208000E1000B1EFA000A1F00010908009004403D
:1020900000A0044000B0044000C0044000D0044050
:1020A00000A0064000B0064000C0064000D0064038
:1020B00000A00E4000B00E40343536376A6E6B6CAF
:1020C000676D4E4F020401018820FF1FD820FF1FBB
:1020D0008820FF1F8820FF1F8820FF1FE90BFF1F9C
:1020E000D00BFF1F000000000000000000000000F7
:1020F00000000000000000000000000000000000E0
:102100000000000080B5002201214F2000F0FCFA01
:1021100000220121532000F0F7FA00220121602063
:1021200000F0F2FA00220121612000F0EDFA002215
:1021300001219B2000F0E8FA01BD00000821DFF832
:10214000D024D268126852F00202DFF8C434DB688F
:102150001A60DFF8BC249268126832F40042DFF89B
:10216000B0349B681A600A00511ED2B2002A2DD0EA
:1021700002060AD5DFF898249268126852F4002209
:10218000DFF88C349B681A6009E0DFF884249268D9
:10219000126832F40022DFF878349B681A60DFF8A6
:1021A00070249268126852F40042DFF864349B682D
:1021B0001A6000BFDFF858249268126832F40042B7
:1021C000DFF84C349B681A604000CCE77047000091
:1021D0000821DFF83C24D268126832F00202DFF8EE
:1021E0003034DB681A60DFF828249268126832F411
:1021F0000042DFF81C349B681A600A00511ED2B2FC
:10220000002A2DD002060AD5DFF80424926812684D
:1022100052F40022DFF8F8339B681A6009E0DFF817
:10222000F0239268126832F40022DFF8E4339B68EE
:102230001A60DFF8DC239268126852F40042DFF87B
:10224000D0339B681A6000BFDFF8C423926812681D
:1022500032F40042DFF8B8339B681A604000CCE7E4
:10226000704738B504000D00B5F15000C0B2FFF75B
:10227000AFFFE4B2200950F01000C0B2FFF7A8FF92
:1022800014F00F00FFF7A4FF31BD70B5040000206B
:102290000500EDB2082D17D2B5F15000C0B2FFF71E
:1022A00097FF0020FFF794FF1020FFF791FF002019
:1022B0000600F6B2822E05D22000C0B2FFF73EFF24
:1022C000761CF6E76D1CE4E770BD80B2002809D0EB
:1022D00041F6132211000A00511E92B2002AFAD1CF
:1022E000401EF2E7704710B504002020FFF770FF92
:1022F0002000C0B2FFF76CFF10BD10B5040054F011
:102300004000C0B2FFF764FF10BD10B5040081208B
:10231000FFF75EFF2000C0B2FFF75AFF10BD10B5F7
:1023200004008D20FFF754FF54F01000C0B2FFF7F7
:102330004FFF10BD10B5040054F0A000C0B2FFF76D
:1023400047FF10BD10B5040054F0A400C0B2FFF761
:102350003FFF10BD10B5040054F0A600C0B2FFF757
:1023600037FF10BD10B50400A820FFF731FF200093
:10237000C0B2FFF72DFF10BD10B5040054F0AE0041
:10238000C0B2FFF725FF10BD10B5040054F0C00027
:10239000C0B2FFF71DFF10BD10B50400D320FFF73A
:1023A00017FF2000C0B2FFF713FF10BD10B50400E7
:1023B000D520FFF70DFF2000C0B2FFF709FF10BDC9
:1023C00010B50400D920FFF703FF2000C0B2FFF7CB
:1023D000FFFE10BD10B50400DA20FFF7F9FE54F03F
:1023E0000200C0B2FFF7F4FE10BD10B50400DB2000
:1023F000FFF7EEFE2000C0B2FFF7EAFE10BD80B589
:10240000FFF780FEDFF808028068006850F40040A3
:10241000DFF8FC1189680860DFF8F401C068006823
:1024200040084000DFF8E811C96808603220FFF773
:102430004CFFDFF8DC01C068006850F00100DFF8F5
:10244000D011C96808600020FFF796FF8020FFF7D1
:10245000ADFF3F20FFF786FF0020FFF79DFF002024
:10246000FFF74BFF0420FFF75AFF0220FFF73BFF67
:102470000120FFF75FFF0820FFF786FF1020FFF71E
:10248000A9FFCF20FFF741FFF120FFF799FF402080
:10249000FFF7ABFF0020FFF755FF0020FFF75AFFC3
:1024A0000120FFF769FF0020FFF7EFFE0021002069
:1024B000FFF7D7FE01BD2DE9F04104008846150065
:1024C00000260027B5F120000600E4B27B2C03D3E0
:1024D0000020040018F101084146C9B22000C0B232
:1024E000FFF7BFFE00200700FFB2062F0BD2FFB29E
:1024F000F6B20620DFF8081200FB0610385CFFF782
:102500001DFE7F1CF0E7BDE8F0812DE9F84F0400C7
:102510000D0093460FFA8BFBBBF1000F0BD52D225C
:102520002900C9B22000C0B2FFF7C5FF0FFA8BFB2C
:10253000DBF1000B06E02B222900C9B22000C0B25B
:10254000FFF7B9FF0FFA8BFB42F210709BFBF0F024
:1025500081460FFA8BFB42F210709BFBF0F100FBFF
:1025600011B04FF47A7190FBF1F082460FFA8BFBB9
:102570004FF47A709BFBF0F100FB11B0642190FBEB
:10258000F1F006000FFA8BFB64209BFBF0F100FBDF
:1025900011B00A2190FBF1F007000FFA8BFB0A2023
:1025A0009BFBF0F100FB11B0804619F13002D2B272
:1025B0002900C9B2A01DC0B2FFF77DFF1AF1300299
:1025C000D2B22900C9B214F10C00C0B2FFF773FFF8
:1025D00016F13002D2B22900C9B214F11200C0B211
:1025E000FFF769FF17F13002D2B22900C9B214F126
:1025F0001800C0B2FFF75FFF18F13002D2B2290015
:10260000C9B214F11E00C0B2FFF755FFBDE8F18F4B
:10261000180BFF1F2DE9F0415FF0000800200400B7
:10262000E4B2072C33D2B4F15000C0B2FFF7D0FDB2
:102630000020FFF7CDFD1020FFF7CAFD00200500A8
:10264000EDB2502D21D200200600F6B2082E14D291
:102650005FFA88F85FEA5808EDB2E4B2E00050FA99
:1026600086F05021274A01FB0020285C0700002F3C
:1026700001D158F08008761CE7E74046C0B2FFF76A
:102680005DFD002080466D1CDAE7641CC8E7B4F1EC
:102690005000C0B2FFF79CFD0020FFF799FD10200D
:1026A000FFF796FD00200500EDB2502D25D2002049
:1026B0000600F6B2042E14D25FFA88F85FEA5808D2
:1026C000EDB2E4B2E00050FA86F050210D4A01FB71
:1026D0000020285C0700002F01D158F08008761CEC
:1026E000E7E75FFA88F85FEA18184046C0B2FFF7DC
:1026F00025FD002080466D1CD6E7BDE8F081000076
:1027000044340000B40DFF1F70B504000D00160026
:102710004FF480712000C0B200F08AF86DB2002D35
:1027200011D1E4B26011404951F82000E4B26111C6
:102730003D4A52F821104969012214F01F039A40C2
:102740009143416136E0E4B26011374951F820000D
:10275000E4B26111344A52F821104969012214F09F
:102760001F039A4011434161F6B2002E11D1E4B229
:1027700060112D4951F820000068012114F01F025A
:1027800091408843E4B26111274A52F82110086051
:1027900010E0E4B26011244951F8200000680121E2
:1027A00014F01F0291400843E4B261111E4A52F82E
:1027B0002110086070BD10B50400E4B260111A4920
:1027C00051F82000406914F01F01C840C00703D42D
:1027D0007B21164800F099F8E4B26011124951F8D3
:1027E0002000012114F01F029140C16010BD10B5FE
:1027F0000400E4B260110C4951F82000406914F063
:102800001F01C840C00703D58C21084800F07DF89F
:10281000E4B26011044951F82000006914F01F016E
:10282000C84010F0010010BD180BFF1F683A0000EF
:1028300010B4294A12684FF40073C0B24409A3408F
:102840001A43254B1A60C0B24211244B53F8222080
:10285000012310F01F04A340C2F8A030C0B210F052
:102860001F02C0B243111D4C54F8233043F822100C
:1028700010BC704710B4184A12684FF40073C0B20D
:102880004409A3401A43144B1A60C0B24211134BBF
:1028900053F82220012310F01F04A340C2F8A030F7
:1028A00031F4E061C0B210F01F02C0B243110B4C12
:1028B00054F8233053F8222012F4E0621143C0B2DE
:1028C00010F01F02C0B24311044C54F8233043F8F7
:1028D000221010BC7047000038800440740BFF1FAA
:1028E000DFF800F01D0CFF1FDFF800F04D0CFF1F9C
:1028F000BFF34F8F4648006810F4E0604549084335
:1029000043490860BFF34F8FFEE738B504000D0060
:10291000002000F08DF82A0021003F4800F0C0F8A8
:10292000002000F0A2F84FF47A7000F0E6F8F2E729
:1029300038B504000D00210049B2022000F000FA71
:10294000200032BD10B50024042000F013FA04204A
:1029500000F046FA002841D1002000F069F8042078
:1029600000F03EFA012801D101200400002000F00F
:102970007CF82A4800F094F84FF4FA7000F0BDF8A3
:10298000E4B2012CEBD1042000F02AFA0028E6D1B1
:10299000042000F025FA002806D1002000F065F898
:1029A000642000F0AAF8F3E7042000F019FA0128E7
:1029B00006D1002000F059F8322000F09EF8F3E72D
:1029C000174800F06DF8FFF78BFF642000F095F8D2
:1029D0000020FFF789FFFFF78BFFC0E710BD10B5A0
:1029E00010480468012000F023F8012000F03DF8B1
:1029F000E4B20F200C4900FB0412E4B221000B48A2
:102A000000F04EF84FF47A7000F077F8EDE7000030
:102A10000CED00E00400FA05A43B0000543C00006B
:102A2000D83B000004ED00E01004FF1F3C3B000019
:102A300010B5040064B2042C07DA0122012164B24B
:102A40001648205CFFF760FE0EE004200400200022
:102A5000441E40B2002807D00122012164B20F4871
:102A6000205CFFF751FEF2E710BD10B5040064B220
:102A7000042C05DA64B20948205CFFF79CFE0CE0E8
:102A8000042004002000441E40B2002805D064B297
:102A90000248205CFFF78FFEF4E710BDA00BFF1F7C
:102AA0000EB400B582B003A9009100AB024601212B
:102AB000034878440A30FDF7AFFC06BC5DF810FB14
:102AC0007111000010B50400002C15D0B4F1807F06
:102AD00003D329210F48FFF718FF0F480021016099
:102AE0000E4804600E48002101600B48052101607A
:102AF00009480068C003FBD510BD10B504002000D4
:102B0000441E002804D007480068FFF7DBFFF6E703
:102B100010BD0000D039000010E000E014E000E03B
:102B200018E000E07C20FF1F2DE9F84304000D00B1
:102B300064B2002C08D0022C2CD018D3042C4FD017
:102B40003BD3052C5FD071E0DFF81002006850F431
:102B50008060DFF8081208604FF440716620FFF7CC
:102B600067FE4FF440716720FFF762FE5EE0DFF81A
:102B7000EC01006850F40060DFF8E01108604FF4E9
:102B800040714320FFF754FE4FF440714420FFF79B
:102B90004FFE4BE0DFF8C401006850F48050DFF8CE
:102BA000BC1108604FF440716320FFF741FE4FF401
:102BB00040716220FFF73CFE38E0DFF8A0010068BA
:102BC00050F40050DFF8941108604FF44071502029
:102BD000FFF72EFE4FF440715120FFF729FE25E04C
:102BE000DFF87C01006850F48060DFF87411086041
:102BF0004FF440714E20FFF71BFE4FF440714F2001
:102C0000FFF716FE12E0DFF85801006850F400608C
:102C1000DFF84C1108604FF440716820FFF708FEA0
:102C20004FF440716920FFF703FEFFE764B2DFF85D
:102C3000340150F82400C07810F0F30064B2DFF8DB
:102C4000241151F82410C87064B2DFF8180150F84C
:102C5000240064B2DFF80C1151F8241089788170D7
:102C600064B2002C02D064B2012C07D1DFF8F80066
:102C700000684FF47A714843814606E0DFF8EC00C3
:102C800000684FF47A71484381462801B9FBF0F09F
:102C90000600B6B2B6F5005F02D341F6FF7006003B
:102CA000B9FBF5F0B6B2B0EB06100700BFB2202FAB
:102CB00003D3DC212E48FFF728FE64B2294850F8E0
:102CC0002400007810F0E0008046B6B2300A10F020
:102CD0001F0050EA080064B2224951F8241008701D
:102CE00064B2204850F82400467064B21D4850F881
:102CF0002400807A10F0E000804664B2194850F851
:102D0000240017F01F0151EA0801817264B21548CE
:102D100050F82400007C50F0880064B2114951F84A
:102D20002410087464B20F4850F82400C07850F0A2
:102D30000C0064B20B4951F82410C870BDE8F1834F
:102D400040B2084A52F8202012791206F8D540B253
:102D5000044A52F82020D1717047000034800440AA
:102D600028800440880BFF1F7C20FF1F8420FF1F4A
:102D7000B03A000010B5040064B2082C0DDA00224D
:102D8000002164B22148205CFFF7BEFC032164B23D
:102D90001E48205CFFF76EFD14E0082004002000B0
:102DA000441E40B200280DD00022002164B2174812
:102DB000205CFFF7A9FC032164B21448205CFFF7F4
:102DC00059FDECE710BD10B5040064B20F48205C5B
:102DD000FFF70DFD002801D1002000E0012010BD0B
:102DE00010B50400200040B2FFF7EDFF00280AD123
:102DF0000A20FFF782FE200040B2FFF7E4FF002820
:102E000001D1002000E0012010BD0000A40BFF1F35
:102E1000DFF800F0650DFF1F40B2DFF8C81331F88E
:102E2000201040B20128C0F2838140B2112880F204
:102E30007F81DFF8B4230023137089B25B2904D2A9
:102E4000DFF8A4230023537088E089B2B52904D2A7
:102E5000DFF894230123537080E040F20F1289B20F
:102E6000914204D2DFF880230223537076E040F2CF
:102E7000691289B2914204D2DFF86C2303235370A4
:102E80006CE040F2C31289B2914204D2DFF85823B9
:102E90000423537062E040F21D2289B2914204D2B1
:102EA000DFF844230523537058E040F2772289B2BB
:102EB000914204D2DFF83023062353704EE040F2F3
:102EC000D12289B2914204D2DFF81C230723537028
:102ED00044E040F22B3289B2914204D2DFF8082359
:102EE000082353703AE040F2853289B2914204D20D
:102EF000DFF8F4220923537030E040F2DF3289B268
:102F0000914204D2DFF8E0220A23537026E040F217
:102F1000394289B2914203D2B34A0B2353701DE068
:102F200040F2934289B2914203D2AF4A0C235370CC
:102F300014E040F2ED4289B2914203D2AA4A0D2335
:102F400053700BE040F2475289B2914203D2A64A35
:102F50000E23537002E0A44A0F23537089B21A293A
:102F600003D2A14A002393706DE089B2332903D2C2
:102F70009D4A0123937066E089B24C2903D29A4A94
:102F8000022393705FE089B2652903D2964A032336
:102F9000937058E089B27E2903D2934A0423937038
:102FA00051E089B2972903D28F4A052393704AE0F2
:102FB00089B2B02903D28C4A0623937043E089B2C8
:102FC000C92903D2884A072393703CE089B2E229D9
:102FD00003D2854A0823937035E089B2FB2903D2D6
:102FE000814A092393702EE04FF48A7289B291428C
:102FF00003D27D4A0A23937025E040F22D1289B254
:10300000914203D2784A0B2393701CE089B2B1F548
:10301000A37F03D2744A0C23937014E040F25F1232
:1030200089B2914203D2704A0D2393700BE04FF4A2
:10303000BC7289B2914203D26B4A0E23937002E0B4
:10304000694A0F23937089B21A2903D2664A002372
:10305000D3706DE089B2332903D2634A0123D37060
:1030600066E089B24C2903D25F4A0223D3705FE045
:1030700089B2652903D25C4A0323D37058E089B230
:103080007E2903D2584A0423D37051E089B297298C
:1030900003D2554A0523D3704AE089B2B02903D23E
:1030A000514A0623D37043E089B2C92903D24E4A5C
:1030B0000723D3703CE089B2E22903D24A4A0823AD
:1030C000D37035E089B2FB2903D2474A0923D37074
:1030D0002EE04FF48A7289B2914203D2424A0A2307
:1030E000D37025E040F22D1289B2914203D23E4ABC
:1030F0000B23D3701CE089B2B1F5A37F03D23A4A07
:103100000C23D37014E040F25F1289B2914203D2D3
:10311000354A0D23D3700BE04FF4BC7289B2914253
:1031200003D2314A0E23D37002E02F4A0F23D3700B
:10313000704710B50400200040B2FFF76DFE2B4829
:10314000007810F0FD00294908702848007850F0F8
:103150001000264908702648B821017025480078DB
:10316000C006FBD423480078C0F38100C0B2022817
:10317000F8D11D48C3781C4882781B4841781A480A
:103180000078FFF745FE64B2164810EB84008078A3
:1031900010F01F001849087064B2124810EB840048
:1031A000C07810F01F0050F040001449087011481A
:1031B00000788006FBD50F4800784006FBD50C4808
:1031C000007810F03F000A4908700A480078C0F300
:1031D0008100C0B20328F8D164B2024830F824005C
:1031E000C0B210BD2C0BFF1F700BFF1F014006402B
:1031F00000400640064006400440064005400640A8
:1032000080B5FFF7FCF80020FFF712FC0120FFF764
:103210000FFC0220FFF70CFC0320FFF709FC01BDA7
:1032200080B5FFF7EDFF00F036F8DFF8D001026857
:1032300012B200215020FFF768F9DFF8C4010268DC
:1032400012B201215020FFF760F9FFF7E3F9DFF830
:10325000AC0100680028E6D0DFF8A401006800286F
:10326000E1D000F001F8DEE7DFF890010068801C93
:10327000DFF888110860DFF8840100682538DFF87E
:103280007C110860DFF878010068D0F11E00DFF8DB
:103290007011086070472DE9F041002400250026D8
:1032A00000275FF0000855480021016054480021C4
:1032B00001603B200400E4B2012CC0F09D80052099
:1032C0000500EDB24B2D26D2EDB2E4B250204D49AF
:1032D00000FB0410285CFF281BD1EDB2E4B25020A3
:1032E000484900FB041028184078FF2811D1EDB29E
:1032F000E4B25020434900FB0410281880780028CD
:1033000007D1EDB2A81C3D4908603D48E4B2046015
:1033100001E06D1CD5E739480068002832D03848F4
:10332000006800282ED0354800680600F6B2334801
:1033300000680A30864225DAF6B24C2E08D32F48B0
:10334000002101602E48002101600020070019E0E3
:10335000F6B2E4B250202B4900FB0410305C002888
:1033600004D17F1CFFB2042F0AD308E023480021B8
:1033700001602348002101600020070002E001E015
:10338000761CD3E7FFB2042F24D3F6B21B480068A3
:10339000801D864226DAF6B24C2E08D3174800214B
:1033A0000160174800210160002007001AE0F6B212
:1033B000E4B25020134900FB041030184078FF2875
:1033C00001D118F101085FFA88F8B8F1040F09D2A9
:1033D000761CDAE7094800210160094800210160F4
:1033E000002007005FFA88F8B8F1040F02D300F05C
:1033F0000BF801E0641E5EE7BDE8F0817420FF1F5A
:103400007820FF1FB40DFF1F80B50020FFF72DFBB4
:103410000120FFF72AFB0220FFF727FB0320FFF71D
:1034200024FB1420FFF769FB0020FFF71EFB01209F
:10343000FFF71BFB0220FFF718FB0320FFF715FB2C
:1034400001BD00000000000000000000002F00008F
:1034500000000700070000147F147F1400242A7F57
:103460002A120062640813230036495522500000D6
:103470000503000000001C224100000041221C0046
:103480000014083E08140008083E0808000000A0C8
:1034900060000008080808080000606000000020C4
:1034A00010080402003E5149453E0000427F4000A2
:1034B000004261514946002141454B310018141228
:1034C0007F10002745454539003C4A4949300001F5
:1034D0007109050300364949493600064949291E44
:1034E00000003636000000005636000000081422A6
:1034F00041000014141414140000412214080002A6
:103500000151090600324959513E007C1211127CCA
:10351000007F49494936003E41414122007F4141F7
:10352000221C007F49494941007F09090901003EE9
:103530004149497A007F0808087F0000417F410027
:10354000002040413F01007F08142241007F40409D
:103550004040007F020C027F007F0408107F003E85
:103560004141413E007F09090906003E4151215E6B
:10357000007F091929460046494949310001017F68
:103580000101003F4040403F001F2040201F003FFE
:103590004038403F006314081463000708700807B0
:1035A00000615149454300007F4141000002040889
:1035B0001020000041417F0000040201020400408D
:1035C0004040404000000102040000205454547860
:1035D000007F484444380038444444200038444480
:1035E000487F00385454541800087E09010200181E
:1035F000A4A4A47C007F080404780000447D40005B
:10360000004080847D00007F102844000000417F3E
:103610004000007C04180478007C0804047800381A
:103620004444443800FC242424180018242418FCA2
:10363000007C0804040800485454542000043F440B
:103640004020003C4040207C001C2040201C003CCE
:103650004030403C004428102844001CA0A0A07C1E
:10366000004464544C44141414141414DFF800F08F
:103670000B290000DFF800F0FB2A00004D48F02184
:1036800001704C4800780006FBD54A48007871214B
:10369000084201D0002000E00120704780B5464874
:1036A000006850F40020444908604448006850F421
:1036B0000020424908603F4800780006FBD53D489D
:1036C000F02101700A20FFF7D5FF01BD10B582B0CF
:1036D0000400A4B24FF4006000FB04F000903848EE
:1036E000092101709DF80200364908709DF801001B
:1036F0003549087035489DF800100170FFF7BEFF8E
:10370000002801D100200CE0A4B2002C08D17FF0E9
:10371000010240F20C41200080B200F003F800E00A
:10372000012016BD7CB504000D001600A4B24FF4B4
:103730000060ADB200FB04500190ADB2042095FBD7
:10374000F0F101FB1051002903D0EA212048FFF7D6
:103750008DFF40F60100ADB2854203D3EC211C4839
:10376000FFF784FF9DF80600164908709DF80500D4
:103770001549087015489DF80410017000969DF8D1
:103780000300144908709DF80200134908709DF861
:1037900001001249087012489DF800100170084895
:1037A00006210170FFF76AFF002801D1002000E028
:1037B000012076BD0000024004F0014008F0014005
:1037C00007000240060002400500024004000240DB
:1037D0001C3A00000B0002400A00024009000240AF
:1037E00008000240F0B4114E366834000F4E3668BF
:1037F00056F47F060D4F3E600E0616F0706656EAD0
:103800000076170517F470073E431F0417F470275E
:103810003E43074F3E6000263500EDB29D4201D287
:103820006D1CFAE7014E3460F0BC704700F00140B7
:103830004480044080B500F095F800F02AF800F0CC
:103840000AF8FFF77FF8012201210420FEF75CFF50
:10385000FFF7E6FCFEE780B50D20FFF76AFC334971
:103860000860324800684FF47A7148433049086074
:103870002F4800682F490968C1F30361491CB0FB58
:10388000F1F02D4908604FF416510220FFF74CF972
:1038900001BD2DE9F8432948294988420DD000206F
:1038A0008046B8F5826F08D22448254951F828107F
:1038B00040F8281018F10108F3E7204800F072F8EA
:1038C000204807002048060020480400A01B80462E
:1038D0004046B0F10108002804D030783870761CDA
:1038E0007F1CF5E71A4881461A480500B5EB090028
:1038F00080464046B0F10108002805D0002089F834
:10390000000019F10109F4E713481449144A531A45
:1039100098464346B3F10108002B04D00B7803709E
:10392000491C401CF5E7BDE8F18300008020FF1F23
:103930007C20FF1F448004408420FF1F0000FF1FE5
:10394000000000001004FF1F2819000004210000DF
:10395000B40DFF1FD820FF1FEC0BFF1F6C360000BB
:103960003438000080B500F008F80C4800884FF6A5
:10397000FE7108400949088001BDEFF3118072B65D
:1039800007494CF220520A8005494DF628120A8058
:10399000C0B2002800D162B6704700000020054088
:1039A0000E20054010B504004FF4007094FBF0F1B8
:1039B00001FB1041002903D01E210348FEF7A5FF9B
:1039C0000248046010BD0000F83A000008ED00E075
:1039D000453A5CB5E7D7D3C9E8BCC6B4F3C8FC5CCC
:1039E000B3CCD0F25CA3A8D0C2B0E5A3A9BBF9B414
:1039F000A1C9A8CFDF207632205FBCD3CDD3C2DDF2
:103A0000D2C75C436869705C7372635C4D4B36303F
:103A10005F5379735469636B2E630000453A5CB55C
:103A2000E7D7D3C9E8BCC6B4F3C8FC5CB3CCD0F2CA
:103A30005CA3A8D0C2B0E5A3A9BBF9B4A1C9A8CF23
:103A4000DF207632205FBCD3CDD3C2DDD2C75C434A
:103A50006869705C7372635C4D4B36305F666C6195
:103A600073682E6300000000453A5CB5E7D7D3C900
:103A7000E8BCC6B4F3C8FC5CB3CCD0F25CA3A8D05D
:103A8000C2B0E5A3A9BBF9B4A1C9A8CFDF207632A3
:103A9000205FBCD3CDD3C2DDD2C75C436869705C04
:103AA0007372635C4D4B36305F6770696F2E6300D5
:103AB000453A5CB5E7D7D3C9E8BCC6B4F3C8FC5CEB
:103AC000B3CCD0F25CA3A8D0C2B0E5A3A9BBF9B433
:103AD000A1C9A8CFDF207632205FBCD3CDD3C2DD11
:103AE000D2C75C436869705C7372635C4D4B36305F
:103AF0005F756172742E6300453A5CB5E7D7D3C930
:103B0000E8BCC6B4F3C8FC5CB3CCD0F25CA3A8D0CC
:103B1000C2B0E5A3A9BBF9B4A1C9A8CFDF20763212
:103B2000205FBCD3CDD3C2DDD2C75C436869705C73
:103B30007372635C6D6973632E6300000A2A2A2A1C
:103B40002A64656661756C745F69737220656E7452
:103B500065726564206F6E20766563746F722025D0
:103B6000642A2A2A2A2A0A0A257320496E74657251
:103B7000727570740000000010B5084979441C315A
:103B8000074C7C441A34A14206D0081D0A6851181B
:103B900088470146A142F8D110BD00BF2C000000AB
:103BA00038000000417373657274696F6E2066613E
:103BB000696C656420696E202573206174206C69CE
:103BC0006E652025640A0000AFD3FFFF24130000B8
:103BD000B40DFF1F000000000ABDF8D0D0BDE2CB3D
:103BE000F8B2D9D7F7A3ACC7EBD6D8D0C2CBA2C80E
:103BF000EBB9CCBCFE00000000F009F8002801D0B1
:103C0000FFF7BAFF0020FFF70BFB00F002F80120DE
:103C1000704700F001B800000746384600F002F88F
:103C2000FBE7000001491820ABBEFBE726000200BD
:103C300038B504460D46284600F006F8A84218BFDD
:103C40000024204632BD00000149FEF771BE00BFCE
:103C5000AC0BFF1F0ABDF8C8EBCBC0D1ADBBB7B5ED
:103C6000C8B4FDA3A1000000C046C046C046C0467F
:103C7000FFF7C2FF0000000000000000000000008D
:103C80000000000000000000000000000000000034
:103C9000FFFFFFFFFFFFFFFF00000000000000002C
:103CA0000000000000000000000000000000000014
:103CB000000000000000000000000000FFFFFFFF08
:043CC000FFFF000002
:0400000500003C6952
:00000001FF
